{
  "_format": "hh-sol-artifact-1",
  "contractName": "ApePixelGang",
  "sourceName": "contracts/ApePixelGang.sol",
  "abi": [
    {
      "inputs": [
        {
          "internalType": "string",
          "name": "_initNotRevealedURI",
          "type": "string"
        }
      ],
      "stateMutability": "nonpayable",
      "type": "constructor"
    },
    {
      "anonymous": false,
      "inputs": [
        {
          "indexed": true,
          "internalType": "address",
          "name": "owner",
          "type": "address"
        },
        {
          "indexed": true,
          "internalType": "address",
          "name": "approved",
          "type": "address"
        },
        {
          "indexed": true,
          "internalType": "uint256",
          "name": "tokenId",
          "type": "uint256"
        }
      ],
      "name": "Approval",
      "type": "event"
    },
    {
      "anonymous": false,
      "inputs": [
        {
          "indexed": true,
          "internalType": "address",
          "name": "owner",
          "type": "address"
        },
        {
          "indexed": true,
          "internalType": "address",
          "name": "operator",
          "type": "address"
        },
        {
          "indexed": false,
          "internalType": "bool",
          "name": "approved",
          "type": "bool"
        }
      ],
      "name": "ApprovalForAll",
      "type": "event"
    },
    {
      "anonymous": false,
      "inputs": [
        {
          "indexed": true,
          "internalType": "address",
          "name": "previousOwner",
          "type": "address"
        },
        {
          "indexed": true,
          "internalType": "address",
          "name": "newOwner",
          "type": "address"
        }
      ],
      "name": "OwnershipTransferred",
      "type": "event"
    },
    {
      "anonymous": false,
      "inputs": [
        {
          "indexed": true,
          "internalType": "address",
          "name": "from",
          "type": "address"
        },
        {
          "indexed": true,
          "internalType": "address",
          "name": "to",
          "type": "address"
        },
        {
          "indexed": true,
          "internalType": "uint256",
          "name": "tokenId",
          "type": "uint256"
        }
      ],
      "name": "Transfer",
      "type": "event"
    },
    {
      "inputs": [],
      "name": "MAX_QTY",
      "outputs": [
        {
          "internalType": "uint256",
          "name": "",
          "type": "uint256"
        }
      ],
      "stateMutability": "view",
      "type": "function"
    },
    {
      "inputs": [],
      "name": "apecoin",
      "outputs": [
        {
          "internalType": "address",
          "name": "",
          "type": "address"
        }
      ],
      "stateMutability": "view",
      "type": "function"
    },
    {
      "inputs": [],
      "name": "apecoinPrice",
      "outputs": [
        {
          "internalType": "uint256",
          "name": "",
          "type": "uint256"
        }
      ],
      "stateMutability": "view",
      "type": "function"
    },
    {
      "inputs": [
        {
          "internalType": "address",
          "name": "to",
          "type": "address"
        },
        {
          "internalType": "uint256",
          "name": "tokenId",
          "type": "uint256"
        }
      ],
      "name": "approve",
      "outputs": [],
      "stateMutability": "nonpayable",
      "type": "function"
    },
    {
      "inputs": [
        {
          "internalType": "address",
          "name": "owner",
          "type": "address"
        }
      ],
      "name": "balanceOf",
      "outputs": [
        {
          "internalType": "uint256",
          "name": "",
          "type": "uint256"
        }
      ],
      "stateMutability": "view",
      "type": "function"
    },
    {
      "inputs": [],
      "name": "boredApeContract",
      "outputs": [
        {
          "internalType": "address",
          "name": "",
          "type": "address"
        }
      ],
      "stateMutability": "view",
      "type": "function"
    },
    {
      "inputs": [
        {
          "internalType": "address",
          "name": "_token",
          "type": "address"
        }
      ],
      "name": "forwardERC20",
      "outputs": [],
      "stateMutability": "nonpayable",
      "type": "function"
    },
    {
      "inputs": [],
      "name": "founder1",
      "outputs": [
        {
          "internalType": "address",
          "name": "",
          "type": "address"
        }
      ],
      "stateMutability": "view",
      "type": "function"
    },
    {
      "inputs": [],
      "name": "founder2",
      "outputs": [
        {
          "internalType": "address",
          "name": "",
          "type": "address"
        }
      ],
      "stateMutability": "view",
      "type": "function"
    },
    {
      "inputs": [
        {
          "internalType": "uint256",
          "name": "tokenId",
          "type": "uint256"
        }
      ],
      "name": "getApproved",
      "outputs": [
        {
          "internalType": "address",
          "name": "",
          "type": "address"
        }
      ],
      "stateMutability": "view",
      "type": "function"
    },
    {
      "inputs": [
        {
          "internalType": "address",
          "name": "owner",
          "type": "address"
        },
        {
          "internalType": "address",
          "name": "operator",
          "type": "address"
        }
      ],
      "name": "isApprovedForAll",
      "outputs": [
        {
          "internalType": "bool",
          "name": "",
          "type": "bool"
        }
      ],
      "stateMutability": "view",
      "type": "function"
    },
    {
      "inputs": [
        {
          "internalType": "uint256",
          "name": "_num",
          "type": "uint256"
        }
      ],
      "name": "mint",
      "outputs": [],
      "stateMutability": "payable",
      "type": "function"
    },
    {
      "inputs": [
        {
          "internalType": "uint256",
          "name": "_num",
          "type": "uint256"
        }
      ],
      "name": "mintWithApecoin",
      "outputs": [],
      "stateMutability": "nonpayable",
      "type": "function"
    },
    {
      "inputs": [],
      "name": "mintingStarted",
      "outputs": [
        {
          "internalType": "bool",
          "name": "",
          "type": "bool"
        }
      ],
      "stateMutability": "view",
      "type": "function"
    },
    {
      "inputs": [],
      "name": "name",
      "outputs": [
        {
          "internalType": "string",
          "name": "",
          "type": "string"
        }
      ],
      "stateMutability": "view",
      "type": "function"
    },
    {
      "inputs": [],
      "name": "notRevealedURI",
      "outputs": [
        {
          "internalType": "string",
          "name": "",
          "type": "string"
        }
      ],
      "stateMutability": "view",
      "type": "function"
    },
    {
      "inputs": [],
      "name": "owner",
      "outputs": [
        {
          "internalType": "address",
          "name": "",
          "type": "address"
        }
      ],
      "stateMutability": "view",
      "type": "function"
    },
    {
      "inputs": [
        {
          "internalType": "uint256",
          "name": "tokenId",
          "type": "uint256"
        }
      ],
      "name": "ownerOf",
      "outputs": [
        {
          "internalType": "address",
          "name": "",
          "type": "address"
        }
      ],
      "stateMutability": "view",
      "type": "function"
    },
    {
      "inputs": [],
      "name": "price",
      "outputs": [
        {
          "internalType": "uint256",
          "name": "",
          "type": "uint256"
        }
      ],
      "stateMutability": "view",
      "type": "function"
    },
    {
      "inputs": [],
      "name": "renounceOwnership",
      "outputs": [],
      "stateMutability": "nonpayable",
      "type": "function"
    },
    {
      "inputs": [],
      "name": "reveal",
      "outputs": [],
      "stateMutability": "nonpayable",
      "type": "function"
    },
    {
      "inputs": [],
      "name": "revealed",
      "outputs": [
        {
          "internalType": "bool",
          "name": "",
          "type": "bool"
        }
      ],
      "stateMutability": "view",
      "type": "function"
    },
    {
      "inputs": [
        {
          "internalType": "address",
          "name": "from",
          "type": "address"
        },
        {
          "internalType": "address",
          "name": "to",
          "type": "address"
        },
        {
          "internalType": "uint256",
          "name": "tokenId",
          "type": "uint256"
        }
      ],
      "name": "safeTransferFrom",
      "outputs": [],
      "stateMutability": "nonpayable",
      "type": "function"
    },
    {
      "inputs": [
        {
          "internalType": "address",
          "name": "from",
          "type": "address"
        },
        {
          "internalType": "address",
          "name": "to",
          "type": "address"
        },
        {
          "internalType": "uint256",
          "name": "tokenId",
          "type": "uint256"
        },
        {
          "internalType": "bytes",
          "name": "_data",
          "type": "bytes"
        }
      ],
      "name": "safeTransferFrom",
      "outputs": [],
      "stateMutability": "nonpayable",
      "type": "function"
    },
    {
      "inputs": [
        {
          "internalType": "address",
          "name": "operator",
          "type": "address"
        },
        {
          "internalType": "bool",
          "name": "approved",
          "type": "bool"
        }
      ],
      "name": "setApprovalForAll",
      "outputs": [],
      "stateMutability": "nonpayable",
      "type": "function"
    },
    {
      "inputs": [
        {
          "internalType": "string",
          "name": "_baseTokenURI",
          "type": "string"
        }
      ],
      "name": "setBaseURI",
      "outputs": [],
      "stateMutability": "nonpayable",
      "type": "function"
    },
    {
      "inputs": [
        {
          "internalType": "string",
          "name": "_notRevealedURI",
          "type": "string"
        }
      ],
      "name": "setNotRevealedURI",
      "outputs": [],
      "stateMutability": "nonpayable",
      "type": "function"
    },
    {
      "inputs": [
        {
          "internalType": "uint256",
          "name": "_newStartBlock",
          "type": "uint256"
        }
      ],
      "name": "setStartBlock",
      "outputs": [],
      "stateMutability": "nonpayable",
      "type": "function"
    },
    {
      "inputs": [],
      "name": "startBlock",
      "outputs": [
        {
          "internalType": "uint256",
          "name": "",
          "type": "uint256"
        }
      ],
      "stateMutability": "view",
      "type": "function"
    },
    {
      "inputs": [
        {
          "internalType": "bytes4",
          "name": "interfaceId",
          "type": "bytes4"
        }
      ],
      "name": "supportsInterface",
      "outputs": [
        {
          "internalType": "bool",
          "name": "",
          "type": "bool"
        }
      ],
      "stateMutability": "view",
      "type": "function"
    },
    {
      "inputs": [],
      "name": "symbol",
      "outputs": [
        {
          "internalType": "string",
          "name": "",
          "type": "string"
        }
      ],
      "stateMutability": "view",
      "type": "function"
    },
    {
      "inputs": [],
      "name": "tokenCounter",
      "outputs": [
        {
          "internalType": "uint256",
          "name": "",
          "type": "uint256"
        }
      ],
      "stateMutability": "view",
      "type": "function"
    },
    {
      "inputs": [
        {
          "internalType": "uint256",
          "name": "_tokenId",
          "type": "uint256"
        }
      ],
      "name": "tokenURI",
      "outputs": [
        {
          "internalType": "string",
          "name": "",
          "type": "string"
        }
      ],
      "stateMutability": "view",
      "type": "function"
    },
    {
      "inputs": [],
      "name": "totalSupply",
      "outputs": [
        {
          "internalType": "uint256",
          "name": "",
          "type": "uint256"
        }
      ],
      "stateMutability": "view",
      "type": "function"
    },
    {
      "inputs": [
        {
          "internalType": "address",
          "name": "from",
          "type": "address"
        },
        {
          "internalType": "address",
          "name": "to",
          "type": "address"
        },
        {
          "internalType": "uint256",
          "name": "tokenId",
          "type": "uint256"
        }
      ],
      "name": "transferFrom",
      "outputs": [],
      "stateMutability": "nonpayable",
      "type": "function"
    },
    {
      "inputs": [
        {
          "internalType": "address",
          "name": "newOwner",
          "type": "address"
        }
      ],
      "name": "transferOwnership",
      "outputs": [],
      "stateMutability": "nonpayable",
      "type": "function"
    },
    {
      "inputs": [],
      "name": "withdrawAll",
      "outputs": [],
      "stateMutability": "payable",
      "type": "function"
    }
  ],
  "bytecode": "0x608060405266b1a2bc2ec5000060085567d02ab486cedc00006009557fffffffffffffffffffffffffffffffffffffffffffffffffffffffffffffffff600a556000600d60006101000a81548160ff0219169083151502179055503480156200006757600080fd5b50604051620059313803806200593183398181016040528101906200008d9190620009a5565b6040518060400160405280600e81526020017f41706520506978656c2047616e670000000000000000000000000000000000008152506040518060400160405280600381526020017f415047000000000000000000000000000000000000000000000000000000000081525081600090805190602001906200011192919062000840565b5080600190805190602001906200012a92919062000840565b5050506200014d62000141620001bc60201b60201c565b620001c460201b60201c565b600060078190555062000166816200028a60201b60201c565b60005b601e811015620001b457600160075462000184919062000c51565b6007819055506200019e336007546200033560201b60201c565b8080620001ab9062000dba565b91505062000169565b505062000f8a565b600033905090565b6000600660009054906101000a900473ffffffffffffffffffffffffffffffffffffffff16905081600660006101000a81548173ffffffffffffffffffffffffffffffffffffffff021916908373ffffffffffffffffffffffffffffffffffffffff1602179055508173ffffffffffffffffffffffffffffffffffffffff168173ffffffffffffffffffffffffffffffffffffffff167f8be0079c531659141344cd1fd0a4f28419497f9722a3daafe3b4186f6b6457e060405160405180910390a35050565b6200029a620001bc60201b60201c565b73ffffffffffffffffffffffffffffffffffffffff16620002c06200035b60201b60201c565b73ffffffffffffffffffffffffffffffffffffffff161462000319576040517f08c379a0000000000000000000000000000000000000000000000000000000008152600401620003109062000ba3565b60405180910390fd5b80600c90805190602001906200033192919062000840565b5050565b620003578282604051806020016040528060008152506200038560201b60201c565b5050565b6000600660009054906101000a900473ffffffffffffffffffffffffffffffffffffffff16905090565b620003978383620003f360201b60201c565b620003ac6000848484620005ed60201b60201c565b620003ee576040517f08c379a0000000000000000000000000000000000000000000000000000000008152600401620003e59062000b3d565b60405180910390fd5b505050565b600073ffffffffffffffffffffffffffffffffffffffff168273ffffffffffffffffffffffffffffffffffffffff16141562000466576040517f08c379a00000000000000000000000000000000000000000000000000000000081526004016200045d9062000b81565b60405180910390fd5b6200047781620007a760201b60201c565b15620004ba576040517f08c379a0000000000000000000000000000000000000000000000000000000008152600401620004b19062000b5f565b60405180910390fd5b620004ce600083836200081360201b60201c565b6001600360008473ffffffffffffffffffffffffffffffffffffffff1673ffffffffffffffffffffffffffffffffffffffff168152602001908152602001600020600082825462000520919062000c51565b92505081905550816002600083815260200190815260200160002060006101000a81548173ffffffffffffffffffffffffffffffffffffffff021916908373ffffffffffffffffffffffffffffffffffffffff160217905550808273ffffffffffffffffffffffffffffffffffffffff16600073ffffffffffffffffffffffffffffffffffffffff167fddf252ad1be2c89b69c2b068fc378daa952ba7f163c4a11628f55a4df523b3ef60405160405180910390a4620005e9600083836200081860201b60201c565b5050565b60006200061b8473ffffffffffffffffffffffffffffffffffffffff166200081d60201b62001d6e1760201c565b156200079a578373ffffffffffffffffffffffffffffffffffffffff1663150b7a026200064d620001bc60201b60201c565b8786866040518563ffffffff1660e01b815260040162000671949392919062000ae9565b602060405180830381600087803b1580156200068c57600080fd5b505af1925050508015620006c057506040513d601f19601f82011682018060405250810190620006bd919062000979565b60015b62000749573d8060008114620006f3576040519150601f19603f3d011682016040523d82523d6000602084013e620006f8565b606091505b5060008151141562000741576040517f08c379a0000000000000000000000000000000000000000000000000000000008152600401620007389062000b3d565b60405180910390fd5b805181602001fd5b63150b7a0260e01b7bffffffffffffffffffffffffffffffffffffffffffffffffffffffff1916817bffffffffffffffffffffffffffffffffffffffffffffffffffffffff1916149150506200079f565b600190505b949350505050565b60008073ffffffffffffffffffffffffffffffffffffffff166002600084815260200190815260200160002060009054906101000a900473ffffffffffffffffffffffffffffffffffffffff1673ffffffffffffffffffffffffffffffffffffffff1614159050919050565b505050565b505050565b6000808273ffffffffffffffffffffffffffffffffffffffff163b119050919050565b8280546200084e9062000d4e565b90600052602060002090601f016020900481019282620008725760008555620008be565b82601f106200088d57805160ff1916838001178555620008be565b82800160010185558215620008be579182015b82811115620008bd578251825591602001919060010190620008a0565b5b509050620008cd9190620008d1565b5090565b5b80821115620008ec576000816000905550600101620008d2565b5090565b600062000907620009018462000bee565b62000bc5565b9050828152602081018484840111156200092057600080fd5b6200092d84828562000d18565b509392505050565b600081519050620009468162000f70565b92915050565b600082601f8301126200095e57600080fd5b815162000970848260208601620008f0565b91505092915050565b6000602082840312156200098c57600080fd5b60006200099c8482850162000935565b91505092915050565b600060208284031215620009b857600080fd5b600082015167ffffffffffffffff811115620009d357600080fd5b620009e1848285016200094c565b91505092915050565b620009f58162000cae565b82525050565b600062000a088262000c24565b62000a14818562000c2f565b935062000a2681856020860162000d18565b62000a318162000e95565b840191505092915050565b600062000a4b60328362000c40565b915062000a588262000ea6565b604082019050919050565b600062000a72601c8362000c40565b915062000a7f8262000ef5565b602082019050919050565b600062000a9960208362000c40565b915062000aa68262000f1e565b602082019050919050565b600062000ac060208362000c40565b915062000acd8262000f47565b602082019050919050565b62000ae38162000d0e565b82525050565b600060808201905062000b006000830187620009ea565b62000b0f6020830186620009ea565b62000b1e604083018562000ad8565b818103606083015262000b328184620009fb565b905095945050505050565b6000602082019050818103600083015262000b588162000a3c565b9050919050565b6000602082019050818103600083015262000b7a8162000a63565b9050919050565b6000602082019050818103600083015262000b9c8162000a8a565b9050919050565b6000602082019050818103600083015262000bbe8162000ab1565b9050919050565b600062000bd162000be4565b905062000bdf828262000d84565b919050565b6000604051905090565b600067ffffffffffffffff82111562000c0c5762000c0b62000e66565b5b62000c178262000e95565b9050602081019050919050565b600081519050919050565b600082825260208201905092915050565b600082825260208201905092915050565b600062000c5e8262000d0e565b915062000c6b8362000d0e565b9250827fffffffffffffffffffffffffffffffffffffffffffffffffffffffffffffffff0382111562000ca35762000ca262000e08565b5b828201905092915050565b600062000cbb8262000cee565b9050919050565b60007fffffffff0000000000000000000000000000000000000000000000000000000082169050919050565b600073ffffffffffffffffffffffffffffffffffffffff82169050919050565b6000819050919050565b60005b8381101562000d3857808201518184015260208101905062000d1b565b8381111562000d48576000848401525b50505050565b6000600282049050600182168062000d6757607f821691505b6020821081141562000d7e5762000d7d62000e37565b5b50919050565b62000d8f8262000e95565b810181811067ffffffffffffffff8211171562000db15762000db062000e66565b5b80604052505050565b600062000dc78262000d0e565b91507fffffffffffffffffffffffffffffffffffffffffffffffffffffffffffffffff82141562000dfd5762000dfc62000e08565b5b600182019050919050565b7f4e487b7100000000000000000000000000000000000000000000000000000000600052601160045260246000fd5b7f4e487b7100000000000000000000000000000000000000000000000000000000600052602260045260246000fd5b7f4e487b7100000000000000000000000000000000000000000000000000000000600052604160045260246000fd5b6000601f19601f8301169050919050565b7f4552433732313a207472616e7366657220746f206e6f6e20455243373231526560008201527f63656976657220696d706c656d656e7465720000000000000000000000000000602082015250565b7f4552433732313a20746f6b656e20616c7265616479206d696e74656400000000600082015250565b7f4552433732313a206d696e7420746f20746865207a65726f2061646472657373600082015250565b7f4f776e61626c653a2063616c6c6572206973206e6f7420746865206f776e6572600082015250565b62000f7b8162000cc2565b811462000f8757600080fd5b50565b6149978062000f9a6000396000f3fe60806040526004361061021a5760003560e01c80637225038011610123578063a7eaa217116100ab578063edfb7fd81161006f578063edfb7fd814610785578063f2c4ce1e146107b0578063f2fde38b146107d9578063f35e4a6e14610802578063fa8554f01461082b5761021a565b8063a7eaa2171461068e578063b88d4fde146106b7578063c87b56dd146106e0578063d082e3811461071d578063e985e9c5146107485761021a565b806395d89b41116100f257806395d89b41146105dc578063a035b1fe14610607578063a0712d6814610632578063a22cb4651461064e578063a475b5dd146106775761021a565b80637225038014610551578063806ba6d61461057c578063853828b6146105a75780638da5cb5b146105b15761021a565b806342842e0e116101a657806355f804b31161017557806355f804b31461046c5780636352211e146104955780636f8608e4146104d257806370a08231146104fd578063715018a61461053a5761021a565b806342842e0e146103c257806348cd4cb1146103eb5780635183022714610416578063536466af146104415761021a565b8063095ea7b3116101ed578063095ea7b3146102ef578063116b556b1461031857806318160ddd146103435780631c96cae91461036e57806323b872dd146103995761021a565b806301ffc9a71461021f57806302ab78a21461025c57806306fdde0314610287578063081812fc146102b2575b600080fd5b34801561022b57600080fd5b506102466004803603810190610241919061331f565b610854565b60405161025391906139fb565b60405180910390f35b34801561026857600080fd5b50610271610936565b60405161027e9190613934565b60405180910390f35b34801561029357600080fd5b5061029c61094e565b6040516102a99190613a16565b60405180910390f35b3480156102be57600080fd5b506102d960048036038101906102d491906133b2565b6109e0565b6040516102e69190613934565b60405180910390f35b3480156102fb57600080fd5b50610316600480360381019061031191906132ba565b610a65565b005b34801561032457600080fd5b5061032d610b7d565b60405161033a9190613934565b60405180910390f35b34801561034f57600080fd5b50610358610b95565b6040516103659190613d78565b60405180910390f35b34801561037a57600080fd5b50610383610b9f565b6040516103909190613d78565b60405180910390f35b3480156103a557600080fd5b506103c060048036038101906103bb91906131b4565b610ba5565b005b3480156103ce57600080fd5b506103e960048036038101906103e491906131b4565b610c05565b005b3480156103f757600080fd5b50610400610c25565b60405161040d9190613d78565b60405180910390f35b34801561042257600080fd5b5061042b610c2b565b60405161043891906139fb565b60405180910390f35b34801561044d57600080fd5b50610456610c3e565b6040516104639190613934565b60405180910390f35b34801561047857600080fd5b50610493600480360381019061048e9190613371565b610c56565b005b3480156104a157600080fd5b506104bc60048036038101906104b791906133b2565b610d3d565b6040516104c99190613934565b60405180910390f35b3480156104de57600080fd5b506104e7610def565b6040516104f491906139fb565b60405180910390f35b34801561050957600080fd5b50610524600480360381019061051f919061314f565b610dfc565b6040516105319190613d78565b60405180910390f35b34801561054657600080fd5b5061054f610eb4565b005b34801561055d57600080fd5b50610566610f3c565b6040516105739190613a16565b60405180910390f35b34801561058857600080fd5b50610591610fca565b60405161059e9190613934565b60405180910390f35b6105af610fe2565b005b3480156105bd57600080fd5b506105c661110e565b6040516105d39190613934565b60405180910390f35b3480156105e857600080fd5b506105f1611138565b6040516105fe9190613a16565b60405180910390f35b34801561061357600080fd5b5061061c6111ca565b6040516106299190613d78565b60405180910390f35b61064c600480360381019061064791906133b2565b6111d0565b005b34801561065a57600080fd5b506106756004803603810190610670919061327e565b611392565b005b34801561068357600080fd5b5061068c6113a8565b005b34801561069a57600080fd5b506106b560048036038101906106b091906133b2565b611441565b005b3480156106c357600080fd5b506106de60048036038101906106d99190613203565b611601565b005b3480156106ec57600080fd5b50610707600480360381019061070291906133b2565b611663565b6040516107149190613a16565b60405180910390f35b34801561072957600080fd5b506107326117b6565b60405161073f9190613d78565b60405180910390f35b34801561075457600080fd5b5061076f600480360381019061076a9190613178565b6117bc565b60405161077c91906139fb565b60405180910390f35b34801561079157600080fd5b5061079a611850565b6040516107a79190613d78565b60405180910390f35b3480156107bc57600080fd5b506107d760048036038101906107d29190613371565b611856565b005b3480156107e557600080fd5b5061080060048036038101906107fb919061314f565b6118ec565b005b34801561080e57600080fd5b50610829600480360381019061082491906133b2565b6119e4565b005b34801561083757600080fd5b50610852600480360381019061084d919061314f565b611a6a565b005b60007f80ac58cd000000000000000000000000000000000000000000000000000000007bffffffffffffffffffffffffffffffffffffffffffffffffffffffff1916827bffffffffffffffffffffffffffffffffffffffffffffffffffffffff1916148061091f57507f5b5e139f000000000000000000000000000000000000000000000000000000007bffffffffffffffffffffffffffffffffffffffffffffffffffffffff1916827bffffffffffffffffffffffffffffffffffffffffffffffffffffffff1916145b8061092f575061092e82611d91565b5b9050919050565b734d224452801aced8b2f0aebe155379bb5d59438181565b60606000805461095d90614033565b80601f016020809104026020016040519081016040528092919081815260200182805461098990614033565b80156109d65780601f106109ab576101008083540402835291602001916109d6565b820191906000526020600020905b8154815290600101906020018083116109b957829003601f168201915b5050505050905090565b60006109eb82611dfb565b610a2a576040517f08c379a0000000000000000000000000000000000000000000000000000000008152600401610a2190613c58565b60405180910390fd5b6004600083815260200190815260200160002060009054906101000a900473ffffffffffffffffffffffffffffffffffffffff169050919050565b6000610a7082610d3d565b90508073ffffffffffffffffffffffffffffffffffffffff168373ffffffffffffffffffffffffffffffffffffffff161415610ae1576040517f08c379a0000000000000000000000000000000000000000000000000000000008152600401610ad890613cb8565b60405180910390fd5b8073ffffffffffffffffffffffffffffffffffffffff16610b00611e67565b73ffffffffffffffffffffffffffffffffffffffff161480610b2f5750610b2e81610b29611e67565b6117bc565b5b610b6e576040517f08c379a0000000000000000000000000000000000000000000000000000000008152600401610b6590613b98565b60405180910390fd5b610b788383611e6f565b505050565b732e2435dbadf4e825ef7c83d871c0ab272eecd43881565b6000600754905090565b61271081565b610bb6610bb0611e67565b82611f28565b610bf5576040517f08c379a0000000000000000000000000000000000000000000000000000000008152600401610bec90613d18565b60405180910390fd5b610c00838383612006565b505050565b610c2083838360405180602001604052806000815250611601565b505050565b600a5481565b600d60009054906101000a900460ff1681565b734c8734d7978373de413ad6d36bfcafb7f76f6bb181565b610c5e611e67565b73ffffffffffffffffffffffffffffffffffffffff16610c7c61110e565b73ffffffffffffffffffffffffffffffffffffffff1614610cd2576040517f08c379a0000000000000000000000000000000000000000000000000000000008152600401610cc990613c78565b60405180910390fd5b6000600b8054610ce190614033565b905014610d23576040517f08c379a0000000000000000000000000000000000000000000000000000000008152600401610d1a90613c98565b60405180910390fd5b80600b9080519060200190610d39929190612f49565b5050565b6000806002600084815260200190815260200160002060009054906101000a900473ffffffffffffffffffffffffffffffffffffffff169050600073ffffffffffffffffffffffffffffffffffffffff168173ffffffffffffffffffffffffffffffffffffffff161415610de6576040517f08c379a0000000000000000000000000000000000000000000000000000000008152600401610ddd90613bd8565b60405180910390fd5b80915050919050565b6000600a54431015905090565b60008073ffffffffffffffffffffffffffffffffffffffff168273ffffffffffffffffffffffffffffffffffffffff161415610e6d576040517f08c379a0000000000000000000000000000000000000000000000000000000008152600401610e6490613bb8565b60405180910390fd5b600360008373ffffffffffffffffffffffffffffffffffffffff1673ffffffffffffffffffffffffffffffffffffffff168152602001908152602001600020549050919050565b610ebc611e67565b73ffffffffffffffffffffffffffffffffffffffff16610eda61110e565b73ffffffffffffffffffffffffffffffffffffffff1614610f30576040517f08c379a0000000000000000000000000000000000000000000000000000000008152600401610f2790613c78565b60405180910390fd5b610f3a600061226d565b565b600c8054610f4990614033565b80601f0160208091040260200160405190810160405280929190818152602001828054610f7590614033565b8015610fc25780601f10610f9757610100808354040283529160200191610fc2565b820191906000526020600020905b815481529060010190602001808311610fa557829003601f168201915b505050505081565b73f1088c8a435e46f8e75eacd62df584d96b31086681565b610fea611e67565b73ffffffffffffffffffffffffffffffffffffffff1661100861110e565b73ffffffffffffffffffffffffffffffffffffffff161461105e576040517f08c379a000000000000000000000000000000000000000000000000000000000815260040161105590613c78565b60405180910390fd5b60004790506000811161107057600080fd5b6110a6734c8734d7978373de413ad6d36bfcafb7f76f6bb160646014846110979190613eef565b6110a19190613ebe565b612333565b6110d0732e2435dbadf4e825ef7c83d871c0ab272eecd4386002476110cb9190613ebe565b612333565b6110ee73f1088c8a435e46f8e75eacd62df584d96b31086647612333565b61110b734d224452801aced8b2f0aebe155379bb5d594381611a6a565b50565b6000600660009054906101000a900473ffffffffffffffffffffffffffffffffffffffff16905090565b60606001805461114790614033565b80601f016020809104026020016040519081016040528092919081815260200182805461117390614033565b80156111c05780601f10611195576101008083540402835291602001916111c0565b820191906000526020600020905b8154815290600101906020018083116111a357829003601f168201915b5050505050905090565b60085481565b6111d8610def565b611217576040517f08c379a000000000000000000000000000000000000000000000000000000000815260040161120e90613cd8565b60405180910390fd5b6127106007541061125d576040517f08c379a000000000000000000000000000000000000000000000000000000000815260040161125490613af8565b60405180910390fd5b60008111801561126e5750600a8111155b6112ad576040517f08c379a00000000000000000000000000000000000000000000000000000000081526004016112a490613c18565b60405180910390fd5b612710816007546112be9190613e68565b11156112ff576040517f08c379a00000000000000000000000000000000000000000000000000000000081526004016112f690613a38565b60405180910390fd5b8060085461130d9190613eef565b34101561134f576040517f08c379a000000000000000000000000000000000000000000000000000000000815260040161134690613c38565b60405180910390fd5b60005b8181101561138e5760016007546113699190613e68565b60078190555061137b336007546123e4565b808061138690614096565b915050611352565b5050565b6113a461139d611e67565b8383612402565b5050565b6113b0611e67565b73ffffffffffffffffffffffffffffffffffffffff166113ce61110e565b73ffffffffffffffffffffffffffffffffffffffff1614611424576040517f08c379a000000000000000000000000000000000000000000000000000000000815260040161141b90613c78565b60405180910390fd5b6001600d60006101000a81548160ff021916908315150217905550565b611449610def565b611488576040517f08c379a000000000000000000000000000000000000000000000000000000000815260040161147f90613cd8565b60405180910390fd5b612710600754106114ce576040517f08c379a00000000000000000000000000000000000000000000000000000000081526004016114c590613af8565b60405180910390fd5b6000811180156114df5750600a8111155b61151e576040517f08c379a000000000000000000000000000000000000000000000000000000000815260040161151590613c18565b60405180910390fd5b6127108160075461152f9190613e68565b1115611570576040517f08c379a000000000000000000000000000000000000000000000000000000000815260040161156790613a38565b60405180910390fd5b6115be3330836009546115839190613eef565b734d224452801aced8b2f0aebe155379bb5d59438173ffffffffffffffffffffffffffffffffffffffff1661256f909392919063ffffffff16565b60005b818110156115fd5760016007546115d89190613e68565b6007819055506115ea336007546123e4565b80806115f590614096565b9150506115c1565b5050565b61161261160c611e67565b83611f28565b611651576040517f08c379a000000000000000000000000000000000000000000000000000000000815260040161164890613d18565b60405180910390fd5b61165d848484846125f8565b50505050565b60606007548211156116aa576040517f08c379a00000000000000000000000000000000000000000000000000000000081526004016116a190613a78565b60405180910390fd5b60001515600d60009054906101000a900460ff161515141561175857600c80546116d390614033565b80601f01602080910402602001604051908101604052809291908181526020018280546116ff90614033565b801561174c5780601f106117215761010080835404028352916020019161174c565b820191906000526020600020905b81548152906001019060200180831161172f57829003601f168201915b505050505090506117b1565b6000611762612654565b9050600081511161178257604051806020016040528060008152506117ad565b8061178c846126e6565b60405160200161179d9291906138f0565b6040516020818303038152906040525b9150505b919050565b60075481565b6000600560008473ffffffffffffffffffffffffffffffffffffffff1673ffffffffffffffffffffffffffffffffffffffff16815260200190815260200160002060008373ffffffffffffffffffffffffffffffffffffffff1673ffffffffffffffffffffffffffffffffffffffff16815260200190815260200160002060009054906101000a900460ff16905092915050565b60095481565b61185e611e67565b73ffffffffffffffffffffffffffffffffffffffff1661187c61110e565b73ffffffffffffffffffffffffffffffffffffffff16146118d2576040517f08c379a00000000000000000000000000000000000000000000000000000000081526004016118c990613c78565b60405180910390fd5b80600c90805190602001906118e8929190612f49565b5050565b6118f4611e67565b73ffffffffffffffffffffffffffffffffffffffff1661191261110e565b73ffffffffffffffffffffffffffffffffffffffff1614611968576040517f08c379a000000000000000000000000000000000000000000000000000000000815260040161195f90613c78565b60405180910390fd5b600073ffffffffffffffffffffffffffffffffffffffff168173ffffffffffffffffffffffffffffffffffffffff1614156119d8576040517f08c379a00000000000000000000000000000000000000000000000000000000081526004016119cf90613a98565b60405180910390fd5b6119e18161226d565b50565b6119ec611e67565b73ffffffffffffffffffffffffffffffffffffffff16611a0a61110e565b73ffffffffffffffffffffffffffffffffffffffff1614611a60576040517f08c379a0000000000000000000000000000000000000000000000000000000008152600401611a5790613c78565b60405180910390fd5b80600a8190555050565b611a72611e67565b73ffffffffffffffffffffffffffffffffffffffff16611a9061110e565b73ffffffffffffffffffffffffffffffffffffffff1614611ae6576040517f08c379a0000000000000000000000000000000000000000000000000000000008152600401611add90613c78565b60405180910390fd5b60008173ffffffffffffffffffffffffffffffffffffffff166370a08231306040518263ffffffff1660e01b8152600401611b219190613934565b60206040518083038186803b158015611b3957600080fd5b505afa158015611b4d573d6000803e3d6000fd5b505050506040513d601f19601f82011682018060405250810190611b7191906133db565b9050611bca734c8734d7978373de413ad6d36bfcafb7f76f6bb16064601484611b9a9190613eef565b611ba49190613ebe565b8473ffffffffffffffffffffffffffffffffffffffff166128939092919063ffffffff16565b8173ffffffffffffffffffffffffffffffffffffffff166370a08231306040518263ffffffff1660e01b8152600401611c039190613934565b60206040518083038186803b158015611c1b57600080fd5b505afa158015611c2f573d6000803e3d6000fd5b505050506040513d601f19601f82011682018060405250810190611c5391906133db565b9050611ca0732e2435dbadf4e825ef7c83d871c0ab272eecd438600283611c7a9190613ebe565b8473ffffffffffffffffffffffffffffffffffffffff166128939092919063ffffffff16565b8173ffffffffffffffffffffffffffffffffffffffff166370a08231306040518263ffffffff1660e01b8152600401611cd99190613934565b60206040518083038186803b158015611cf157600080fd5b505afa158015611d05573d6000803e3d6000fd5b505050506040513d601f19601f82011682018060405250810190611d2991906133db565b9050611d6a73f1088c8a435e46f8e75eacd62df584d96b310866828473ffffffffffffffffffffffffffffffffffffffff166128939092919063ffffffff16565b5050565b6000808273ffffffffffffffffffffffffffffffffffffffff163b119050919050565b60007f01ffc9a7000000000000000000000000000000000000000000000000000000007bffffffffffffffffffffffffffffffffffffffffffffffffffffffff1916827bffffffffffffffffffffffffffffffffffffffffffffffffffffffff1916149050919050565b60008073ffffffffffffffffffffffffffffffffffffffff166002600084815260200190815260200160002060009054906101000a900473ffffffffffffffffffffffffffffffffffffffff1673ffffffffffffffffffffffffffffffffffffffff1614159050919050565b600033905090565b816004600083815260200190815260200160002060006101000a81548173ffffffffffffffffffffffffffffffffffffffff021916908373ffffffffffffffffffffffffffffffffffffffff160217905550808273ffffffffffffffffffffffffffffffffffffffff16611ee283610d3d565b73ffffffffffffffffffffffffffffffffffffffff167f8c5be1e5ebec7d5bd14f71427d1e84f3dd0314c0f7b2291e5b200ac8c7c3b92560405160405180910390a45050565b6000611f3382611dfb565b611f72576040517f08c379a0000000000000000000000000000000000000000000000000000000008152600401611f6990613b78565b60405180910390fd5b6000611f7d83610d3d565b90508073ffffffffffffffffffffffffffffffffffffffff168473ffffffffffffffffffffffffffffffffffffffff161480611fec57508373ffffffffffffffffffffffffffffffffffffffff16611fd4846109e0565b73ffffffffffffffffffffffffffffffffffffffff16145b80611ffd5750611ffc81856117bc565b5b91505092915050565b8273ffffffffffffffffffffffffffffffffffffffff1661202682610d3d565b73ffffffffffffffffffffffffffffffffffffffff161461207c576040517f08c379a000000000000000000000000000000000000000000000000000000000815260040161207390613ab8565b60405180910390fd5b600073ffffffffffffffffffffffffffffffffffffffff168273ffffffffffffffffffffffffffffffffffffffff1614156120ec576040517f08c379a00000000000000000000000000000000000000000000000000000000081526004016120e390613b18565b60405180910390fd5b6120f7838383612919565b612102600082611e6f565b6001600360008573ffffffffffffffffffffffffffffffffffffffff1673ffffffffffffffffffffffffffffffffffffffff16815260200190815260200160002060008282546121529190613f49565b925050819055506001600360008473ffffffffffffffffffffffffffffffffffffffff1673ffffffffffffffffffffffffffffffffffffffff16815260200190815260200160002060008282546121a99190613e68565b92505081905550816002600083815260200190815260200160002060006101000a81548173ffffffffffffffffffffffffffffffffffffffff021916908373ffffffffffffffffffffffffffffffffffffffff160217905550808273ffffffffffffffffffffffffffffffffffffffff168473ffffffffffffffffffffffffffffffffffffffff167fddf252ad1be2c89b69c2b068fc378daa952ba7f163c4a11628f55a4df523b3ef60405160405180910390a461226883838361291e565b505050565b6000600660009054906101000a900473ffffffffffffffffffffffffffffffffffffffff16905081600660006101000a81548173ffffffffffffffffffffffffffffffffffffffff021916908373ffffffffffffffffffffffffffffffffffffffff1602179055508173ffffffffffffffffffffffffffffffffffffffff168173ffffffffffffffffffffffffffffffffffffffff167f8be0079c531659141344cd1fd0a4f28419497f9722a3daafe3b4186f6b6457e060405160405180910390a35050565b60008273ffffffffffffffffffffffffffffffffffffffff16826040516123599061391f565b60006040518083038185875af1925050503d8060008114612396576040519150601f19603f3d011682016040523d82523d6000602084013e61239b565b606091505b50509050806123df576040517f08c379a00000000000000000000000000000000000000000000000000000000081526004016123d690613cf8565b60405180910390fd5b505050565b6123fe828260405180602001604052806000815250612923565b5050565b8173ffffffffffffffffffffffffffffffffffffffff168373ffffffffffffffffffffffffffffffffffffffff161415612471576040517f08c379a000000000000000000000000000000000000000000000000000000000815260040161246890613b38565b60405180910390fd5b80600560008573ffffffffffffffffffffffffffffffffffffffff1673ffffffffffffffffffffffffffffffffffffffff16815260200190815260200160002060008473ffffffffffffffffffffffffffffffffffffffff1673ffffffffffffffffffffffffffffffffffffffff16815260200190815260200160002060006101000a81548160ff0219169083151502179055508173ffffffffffffffffffffffffffffffffffffffff168373ffffffffffffffffffffffffffffffffffffffff167f17307eab39ab6107e8899845ad3d59bd9653f200f220920489ca2b5937696c318360405161256291906139fb565b60405180910390a3505050565b6125f2846323b872dd60e01b8585856040516024016125909392919061394f565b604051602081830303815290604052907bffffffffffffffffffffffffffffffffffffffffffffffffffffffff19166020820180517bffffffffffffffffffffffffffffffffffffffffffffffffffffffff838183161783525050505061297e565b50505050565b612603848484612006565b61260f84848484612a45565b61264e576040517f08c379a000000000000000000000000000000000000000000000000000000000815260040161264590613a58565b60405180910390fd5b50505050565b6060600b805461266390614033565b80601f016020809104026020016040519081016040528092919081815260200182805461268f90614033565b80156126dc5780601f106126b1576101008083540402835291602001916126dc565b820191906000526020600020905b8154815290600101906020018083116126bf57829003601f168201915b5050505050905090565b6060600082141561272e576040518060400160405280600181526020017f3000000000000000000000000000000000000000000000000000000000000000815250905061288e565b600082905060005b6000821461276057808061274990614096565b915050600a826127599190613ebe565b9150612736565b60008167ffffffffffffffff8111156127a2577f4e487b7100000000000000000000000000000000000000000000000000000000600052604160045260246000fd5b6040519080825280601f01601f1916602001820160405280156127d45781602001600182028036833780820191505090505b5090505b60008514612887576001826127ed9190613f49565b9150600a856127fc91906140df565b60306128089190613e68565b60f81b818381518110612844577f4e487b7100000000000000000000000000000000000000000000000000000000600052603260045260246000fd5b60200101907effffffffffffffffffffffffffffffffffffffffffffffffffffffffffffff1916908160001a905350600a856128809190613ebe565b94506127d8565b8093505050505b919050565b6129148363a9059cbb60e01b84846040516024016128b29291906139d2565b604051602081830303815290604052907bffffffffffffffffffffffffffffffffffffffffffffffffffffffff19166020820180517bffffffffffffffffffffffffffffffffffffffffffffffffffffffff838183161783525050505061297e565b505050565b505050565b505050565b61292d8383612bdc565b61293a6000848484612a45565b612979576040517f08c379a000000000000000000000000000000000000000000000000000000000815260040161297090613a58565b60405180910390fd5b505050565b60006129e0826040518060400160405280602081526020017f5361666545524332303a206c6f772d6c6576656c2063616c6c206661696c65648152508573ffffffffffffffffffffffffffffffffffffffff16612db69092919063ffffffff16565b9050600081511115612a405780806020019051810190612a0091906132f6565b612a3f576040517f08c379a0000000000000000000000000000000000000000000000000000000008152600401612a3690613d58565b60405180910390fd5b5b505050565b6000612a668473ffffffffffffffffffffffffffffffffffffffff16611d6e565b15612bcf578373ffffffffffffffffffffffffffffffffffffffff1663150b7a02612a8f611e67565b8786866040518563ffffffff1660e01b8152600401612ab19493929190613986565b602060405180830381600087803b158015612acb57600080fd5b505af1925050508015612afc57506040513d601f19601f82011682018060405250810190612af99190613348565b60015b612b7f573d8060008114612b2c576040519150601f19603f3d011682016040523d82523d6000602084013e612b31565b606091505b50600081511415612b77576040517f08c379a0000000000000000000000000000000000000000000000000000000008152600401612b6e90613a58565b60405180910390fd5b805181602001fd5b63150b7a0260e01b7bffffffffffffffffffffffffffffffffffffffffffffffffffffffff1916817bffffffffffffffffffffffffffffffffffffffffffffffffffffffff191614915050612bd4565b600190505b949350505050565b600073ffffffffffffffffffffffffffffffffffffffff168273ffffffffffffffffffffffffffffffffffffffff161415612c4c576040517f08c379a0000000000000000000000000000000000000000000000000000000008152600401612c4390613bf8565b60405180910390fd5b612c5581611dfb565b15612c95576040517f08c379a0000000000000000000000000000000000000000000000000000000008152600401612c8c90613ad8565b60405180910390fd5b612ca160008383612919565b6001600360008473ffffffffffffffffffffffffffffffffffffffff1673ffffffffffffffffffffffffffffffffffffffff1681526020019081526020016000206000828254612cf19190613e68565b92505081905550816002600083815260200190815260200160002060006101000a81548173ffffffffffffffffffffffffffffffffffffffff021916908373ffffffffffffffffffffffffffffffffffffffff160217905550808273ffffffffffffffffffffffffffffffffffffffff16600073ffffffffffffffffffffffffffffffffffffffff167fddf252ad1be2c89b69c2b068fc378daa952ba7f163c4a11628f55a4df523b3ef60405160405180910390a4612db26000838361291e565b5050565b6060612dc58484600085612dce565b90509392505050565b606082471015612e13576040517f08c379a0000000000000000000000000000000000000000000000000000000008152600401612e0a90613b58565b60405180910390fd5b612e1c85611d6e565b612e5b576040517f08c379a0000000000000000000000000000000000000000000000000000000008152600401612e5290613d38565b60405180910390fd5b6000808673ffffffffffffffffffffffffffffffffffffffff168587604051612e8491906138d9565b60006040518083038185875af1925050503d8060008114612ec1576040519150601f19603f3d011682016040523d82523d6000602084013e612ec6565b606091505b5091509150612ed6828286612ee2565b92505050949350505050565b60608315612ef257829050612f42565b600083511115612f055782518084602001fd5b816040517f08c379a0000000000000000000000000000000000000000000000000000000008152600401612f399190613a16565b60405180910390fd5b9392505050565b828054612f5590614033565b90600052602060002090601f016020900481019282612f775760008555612fbe565b82601f10612f9057805160ff1916838001178555612fbe565b82800160010185558215612fbe579182015b82811115612fbd578251825591602001919060010190612fa2565b5b509050612fcb9190612fcf565b5090565b5b80821115612fe8576000816000905550600101612fd0565b5090565b6000612fff612ffa84613db8565b613d93565b90508281526020810184848401111561301757600080fd5b613022848285613ff1565b509392505050565b600061303d61303884613de9565b613d93565b90508281526020810184848401111561305557600080fd5b613060848285613ff1565b509392505050565b60008135905061307781614905565b92915050565b60008135905061308c8161491c565b92915050565b6000815190506130a18161491c565b92915050565b6000813590506130b681614933565b92915050565b6000815190506130cb81614933565b92915050565b600082601f8301126130e257600080fd5b81356130f2848260208601612fec565b91505092915050565b600082601f83011261310c57600080fd5b813561311c84826020860161302a565b91505092915050565b6000813590506131348161494a565b92915050565b6000815190506131498161494a565b92915050565b60006020828403121561316157600080fd5b600061316f84828501613068565b91505092915050565b6000806040838503121561318b57600080fd5b600061319985828601613068565b92505060206131aa85828601613068565b9150509250929050565b6000806000606084860312156131c957600080fd5b60006131d786828701613068565b93505060206131e886828701613068565b92505060406131f986828701613125565b9150509250925092565b6000806000806080858703121561321957600080fd5b600061322787828801613068565b945050602061323887828801613068565b935050604061324987828801613125565b925050606085013567ffffffffffffffff81111561326657600080fd5b613272878288016130d1565b91505092959194509250565b6000806040838503121561329157600080fd5b600061329f85828601613068565b92505060206132b08582860161307d565b9150509250929050565b600080604083850312156132cd57600080fd5b60006132db85828601613068565b92505060206132ec85828601613125565b9150509250929050565b60006020828403121561330857600080fd5b600061331684828501613092565b91505092915050565b60006020828403121561333157600080fd5b600061333f848285016130a7565b91505092915050565b60006020828403121561335a57600080fd5b6000613368848285016130bc565b91505092915050565b60006020828403121561338357600080fd5b600082013567ffffffffffffffff81111561339d57600080fd5b6133a9848285016130fb565b91505092915050565b6000602082840312156133c457600080fd5b60006133d284828501613125565b91505092915050565b6000602082840312156133ed57600080fd5b60006133fb8482850161313a565b91505092915050565b61340d81613f7d565b82525050565b61341c81613f8f565b82525050565b600061342d82613e1a565b6134378185613e30565b9350613447818560208601614000565b613450816141cc565b840191505092915050565b600061346682613e1a565b6134708185613e41565b9350613480818560208601614000565b80840191505092915050565b600061349782613e25565b6134a18185613e4c565b93506134b1818560208601614000565b6134ba816141cc565b840191505092915050565b60006134d082613e25565b6134da8185613e5d565b93506134ea818560208601614000565b80840191505092915050565b6000613503603583613e4c565b915061350e826141dd565b604082019050919050565b6000613526603283613e4c565b91506135318261422c565b604082019050919050565b6000613549601083613e4c565b91506135548261427b565b602082019050919050565b600061356c602683613e4c565b9150613577826142a4565b604082019050919050565b600061358f602583613e4c565b915061359a826142f3565b604082019050919050565b60006135b2601c83613e4c565b91506135bd82614342565b602082019050919050565b60006135d5602283613e4c565b91506135e08261436b565b604082019050919050565b60006135f8602483613e4c565b9150613603826143ba565b604082019050919050565b600061361b601983613e4c565b915061362682614409565b602082019050919050565b600061363e602683613e4c565b915061364982614432565b604082019050919050565b6000613661602c83613e4c565b915061366c82614481565b604082019050919050565b6000613684603883613e4c565b915061368f826144d0565b604082019050919050565b60006136a7602a83613e4c565b91506136b28261451f565b604082019050919050565b60006136ca602983613e4c565b91506136d58261456e565b604082019050919050565b60006136ed602083613e4c565b91506136f8826145bd565b602082019050919050565b6000613710604783613e4c565b915061371b826145e6565b606082019050919050565b6000613733602283613e4c565b915061373e8261465b565b604082019050919050565b6000613756602c83613e4c565b9150613761826146aa565b604082019050919050565b6000613779600583613e5d565b9150613784826146f9565b600582019050919050565b600061379c602083613e4c565b91506137a782614722565b602082019050919050565b60006137bf601d83613e4c565b91506137ca8261474b565b602082019050919050565b60006137e2602183613e4c565b91506137ed82614774565b604082019050919050565b6000613805602c83613e4c565b9150613810826147c3565b604082019050919050565b6000613828600083613e41565b915061383382614812565b600082019050919050565b600061384b601083613e4c565b915061385682614815565b602082019050919050565b600061386e603183613e4c565b91506138798261483e565b604082019050919050565b6000613891601d83613e4c565b915061389c8261488d565b602082019050919050565b60006138b4602a83613e4c565b91506138bf826148b6565b604082019050919050565b6138d381613fe7565b82525050565b60006138e5828461345b565b915081905092915050565b60006138fc82856134c5565b915061390882846134c5565b91506139138261376c565b91508190509392505050565b600061392a8261381b565b9150819050919050565b60006020820190506139496000830184613404565b92915050565b60006060820190506139646000830186613404565b6139716020830185613404565b61397e60408301846138ca565b949350505050565b600060808201905061399b6000830187613404565b6139a86020830186613404565b6139b560408301856138ca565b81810360608301526139c78184613422565b905095945050505050565b60006040820190506139e76000830185613404565b6139f460208301846138ca565b9392505050565b6000602082019050613a106000830184613413565b92915050565b60006020820190508181036000830152613a30818461348c565b905092915050565b60006020820190508181036000830152613a51816134f6565b9050919050565b60006020820190508181036000830152613a7181613519565b9050919050565b60006020820190508181036000830152613a918161353c565b9050919050565b60006020820190508181036000830152613ab18161355f565b9050919050565b60006020820190508181036000830152613ad181613582565b9050919050565b60006020820190508181036000830152613af1816135a5565b9050919050565b60006020820190508181036000830152613b11816135c8565b9050919050565b60006020820190508181036000830152613b31816135eb565b9050919050565b60006020820190508181036000830152613b518161360e565b9050919050565b60006020820190508181036000830152613b7181613631565b9050919050565b60006020820190508181036000830152613b9181613654565b9050919050565b60006020820190508181036000830152613bb181613677565b9050919050565b60006020820190508181036000830152613bd18161369a565b9050919050565b60006020820190508181036000830152613bf1816136bd565b9050919050565b60006020820190508181036000830152613c11816136e0565b9050919050565b60006020820190508181036000830152613c3181613703565b9050919050565b60006020820190508181036000830152613c5181613726565b9050919050565b60006020820190508181036000830152613c7181613749565b9050919050565b60006020820190508181036000830152613c918161378f565b9050919050565b60006020820190508181036000830152613cb1816137b2565b9050919050565b60006020820190508181036000830152613cd1816137d5565b9050919050565b60006020820190508181036000830152613cf1816137f8565b9050919050565b60006020820190508181036000830152613d118161383e565b9050919050565b60006020820190508181036000830152613d3181613861565b9050919050565b60006020820190508181036000830152613d5181613884565b9050919050565b60006020820190508181036000830152613d71816138a7565b9050919050565b6000602082019050613d8d60008301846138ca565b92915050565b6000613d9d613dae565b9050613da98282614065565b919050565b6000604051905090565b600067ffffffffffffffff821115613dd357613dd261419d565b5b613ddc826141cc565b9050602081019050919050565b600067ffffffffffffffff821115613e0457613e0361419d565b5b613e0d826141cc565b9050602081019050919050565b600081519050919050565b600081519050919050565b600082825260208201905092915050565b600081905092915050565b600082825260208201905092915050565b600081905092915050565b6000613e7382613fe7565b9150613e7e83613fe7565b9250827fffffffffffffffffffffffffffffffffffffffffffffffffffffffffffffffff03821115613eb357613eb2614110565b5b828201905092915050565b6000613ec982613fe7565b9150613ed483613fe7565b925082613ee457613ee361413f565b5b828204905092915050565b6000613efa82613fe7565b9150613f0583613fe7565b9250817fffffffffffffffffffffffffffffffffffffffffffffffffffffffffffffffff0483118215151615613f3e57613f3d614110565b5b828202905092915050565b6000613f5482613fe7565b9150613f5f83613fe7565b925082821015613f7257613f71614110565b5b828203905092915050565b6000613f8882613fc7565b9050919050565b60008115159050919050565b60007fffffffff0000000000000000000000000000000000000000000000000000000082169050919050565b600073ffffffffffffffffffffffffffffffffffffffff82169050919050565b6000819050919050565b82818337600083830152505050565b60005b8381101561401e578082015181840152602081019050614003565b8381111561402d576000848401525b50505050565b6000600282049050600182168061404b57607f821691505b6020821081141561405f5761405e61416e565b5b50919050565b61406e826141cc565b810181811067ffffffffffffffff8211171561408d5761408c61419d565b5b80604052505050565b60006140a182613fe7565b91507fffffffffffffffffffffffffffffffffffffffffffffffffffffffffffffffff8214156140d4576140d3614110565b5b600182019050919050565b60006140ea82613fe7565b91506140f583613fe7565b9250826141055761410461413f565b5b828206905092915050565b7f4e487b7100000000000000000000000000000000000000000000000000000000600052601160045260246000fd5b7f4e487b7100000000000000000000000000000000000000000000000000000000600052601260045260246000fd5b7f4e487b7100000000000000000000000000000000000000000000000000000000600052602260045260246000fd5b7f4e487b7100000000000000000000000000000000000000000000000000000000600052604160045260246000fd5b6000601f19601f8301169050919050565b7f49276d2061667261696420796f75277665206661696c656420746f206d696e7460008201527f20746f6f206d616e7920636f6c6c65637469626c650000000000000000000000602082015250565b7f4552433732313a207472616e7366657220746f206e6f6e20455243373231526560008201527f63656976657220696d706c656d656e7465720000000000000000000000000000602082015250565b7f546f6b656e204e6f74204d696e74656400000000000000000000000000000000600082015250565b7f4f776e61626c653a206e6577206f776e657220697320746865207a65726f206160008201527f6464726573730000000000000000000000000000000000000000000000000000602082015250565b7f4552433732313a207472616e736665722066726f6d20696e636f72726563742060008201527f6f776e6572000000000000000000000000000000000000000000000000000000602082015250565b7f4552433732313a20746f6b656e20616c7265616479206d696e74656400000000600082015250565b7f416c6c20636f6c6c65637469626c652068617665206265656e206d696e74656460008201527f2021000000000000000000000000000000000000000000000000000000000000602082015250565b7f4552433732313a207472616e7366657220746f20746865207a65726f2061646460008201527f7265737300000000000000000000000000000000000000000000000000000000602082015250565b7f4552433732313a20617070726f766520746f2063616c6c657200000000000000600082015250565b7f416464726573733a20696e73756666696369656e742062616c616e636520666f60008201527f722063616c6c0000000000000000000000000000000000000000000000000000602082015250565b7f4552433732313a206f70657261746f7220717565727920666f72206e6f6e657860008201527f697374656e7420746f6b656e0000000000000000000000000000000000000000602082015250565b7f4552433732313a20617070726f76652063616c6c6572206973206e6f74206f7760008201527f6e6572206e6f7220617070726f76656420666f7220616c6c0000000000000000602082015250565b7f4552433732313a2062616c616e636520717565727920666f7220746865207a6560008201527f726f206164647265737300000000000000000000000000000000000000000000602082015250565b7f4552433732313a206f776e657220717565727920666f72206e6f6e657869737460008201527f656e7420746f6b656e0000000000000000000000000000000000000000000000602082015250565b7f4552433732313a206d696e7420746f20746865207a65726f2061646472657373600082015250565b7f596f752063616e206d696e74206e6f206665776572207468616e20312c20616e60008201527f64206e6f206d6f7265207468616e20313020636f6c6c65637469626c6520617460208201527f20612074696d6500000000000000000000000000000000000000000000000000604082015250565b7f45746865722076616c75652073656e74206973206e6f7420737566666963696560008201527f6e74000000000000000000000000000000000000000000000000000000000000602082015250565b7f4552433732313a20617070726f76656420717565727920666f72206e6f6e657860008201527f697374656e7420746f6b656e0000000000000000000000000000000000000000602082015250565b7f2e6a736f6e000000000000000000000000000000000000000000000000000000600082015250565b7f4f776e61626c653a2063616c6c6572206973206e6f7420746865206f776e6572600082015250565b7f43616e6e6f742072652d75706461746520746865206261736520555249000000600082015250565b7f4552433732313a20617070726f76616c20746f2063757272656e74206f776e6560008201527f7200000000000000000000000000000000000000000000000000000000000000602082015250565b7f4974206973206e6f742074696d6520746f206d696e742074686520636f6c6c6560008201527f637469626c652079657420210000000000000000000000000000000000000000602082015250565b50565b7f5472616e73666572206661696c65642e00000000000000000000000000000000600082015250565b7f4552433732313a207472616e736665722063616c6c6572206973206e6f74206f60008201527f776e6572206e6f7220617070726f766564000000000000000000000000000000602082015250565b7f416464726573733a2063616c6c20746f206e6f6e2d636f6e7472616374000000600082015250565b7f5361666545524332303a204552433230206f7065726174696f6e20646964206e60008201527f6f74207375636365656400000000000000000000000000000000000000000000602082015250565b61490e81613f7d565b811461491957600080fd5b50565b61492581613f8f565b811461493057600080fd5b50565b61493c81613f9b565b811461494757600080fd5b50565b61495381613fe7565b811461495e57600080fd5b5056fea26469706673582212204f4f500d398730965e9a8cc2d92300e7f8029c2165a44e77c623aca8a46fafc664736f6c63430008040033",
  "linkReferences": {},
  "deployedLinkReferences": {}
}