{
  "_format": "hh-sol-artifact-1",
  "contractName": "ApePixelGang",
  "sourceName": "contracts/ApePixelGang.sol",
  "abi": [
    {
      "inputs": [
        {
          "internalType": "string",
          "name": "_initNotRevealedURI",
          "type": "string"
        }
      ],
      "stateMutability": "nonpayable",
      "type": "constructor"
    },
    {
      "anonymous": false,
      "inputs": [
        {
          "indexed": true,
          "internalType": "address",
          "name": "owner",
          "type": "address"
        },
        {
          "indexed": true,
          "internalType": "address",
          "name": "approved",
          "type": "address"
        },
        {
          "indexed": true,
          "internalType": "uint256",
          "name": "tokenId",
          "type": "uint256"
        }
      ],
      "name": "Approval",
      "type": "event"
    },
    {
      "anonymous": false,
      "inputs": [
        {
          "indexed": true,
          "internalType": "address",
          "name": "owner",
          "type": "address"
        },
        {
          "indexed": true,
          "internalType": "address",
          "name": "operator",
          "type": "address"
        },
        {
          "indexed": false,
          "internalType": "bool",
          "name": "approved",
          "type": "bool"
        }
      ],
      "name": "ApprovalForAll",
      "type": "event"
    },
    {
      "anonymous": false,
      "inputs": [
        {
          "indexed": true,
          "internalType": "uint256",
          "name": "id",
          "type": "uint256"
        }
      ],
      "name": "CollectibleCreated",
      "type": "event"
    },
    {
      "anonymous": false,
      "inputs": [
        {
          "indexed": true,
          "internalType": "address",
          "name": "previousOwner",
          "type": "address"
        },
        {
          "indexed": true,
          "internalType": "address",
          "name": "newOwner",
          "type": "address"
        }
      ],
      "name": "OwnershipTransferred",
      "type": "event"
    },
    {
      "anonymous": false,
      "inputs": [
        {
          "indexed": true,
          "internalType": "address",
          "name": "from",
          "type": "address"
        },
        {
          "indexed": true,
          "internalType": "address",
          "name": "to",
          "type": "address"
        },
        {
          "indexed": true,
          "internalType": "uint256",
          "name": "tokenId",
          "type": "uint256"
        }
      ],
      "name": "Transfer",
      "type": "event"
    },
    {
      "inputs": [],
      "name": "MAX_QTY",
      "outputs": [
        {
          "internalType": "uint256",
          "name": "",
          "type": "uint256"
        }
      ],
      "stateMutability": "view",
      "type": "function"
    },
    {
      "inputs": [
        {
          "internalType": "address",
          "name": "to",
          "type": "address"
        },
        {
          "internalType": "uint256",
          "name": "tokenId",
          "type": "uint256"
        }
      ],
      "name": "approve",
      "outputs": [],
      "stateMutability": "nonpayable",
      "type": "function"
    },
    {
      "inputs": [
        {
          "internalType": "address",
          "name": "owner",
          "type": "address"
        }
      ],
      "name": "balanceOf",
      "outputs": [
        {
          "internalType": "uint256",
          "name": "",
          "type": "uint256"
        }
      ],
      "stateMutability": "view",
      "type": "function"
    },
    {
      "inputs": [],
      "name": "boredApeContract",
      "outputs": [
        {
          "internalType": "address",
          "name": "",
          "type": "address"
        }
      ],
      "stateMutability": "view",
      "type": "function"
    },
    {
      "inputs": [
        {
          "internalType": "address",
          "name": "_token",
          "type": "address"
        }
      ],
      "name": "forwardERC20",
      "outputs": [],
      "stateMutability": "nonpayable",
      "type": "function"
    },
    {
      "inputs": [],
      "name": "founder1",
      "outputs": [
        {
          "internalType": "address",
          "name": "",
          "type": "address"
        }
      ],
      "stateMutability": "view",
      "type": "function"
    },
    {
      "inputs": [],
      "name": "founder2",
      "outputs": [
        {
          "internalType": "address",
          "name": "",
          "type": "address"
        }
      ],
      "stateMutability": "view",
      "type": "function"
    },
    {
      "inputs": [
        {
          "internalType": "uint256",
          "name": "tokenId",
          "type": "uint256"
        }
      ],
      "name": "getApproved",
      "outputs": [
        {
          "internalType": "address",
          "name": "",
          "type": "address"
        }
      ],
      "stateMutability": "view",
      "type": "function"
    },
    {
      "inputs": [
        {
          "internalType": "address",
          "name": "owner",
          "type": "address"
        },
        {
          "internalType": "address",
          "name": "operator",
          "type": "address"
        }
      ],
      "name": "isApprovedForAll",
      "outputs": [
        {
          "internalType": "bool",
          "name": "",
          "type": "bool"
        }
      ],
      "stateMutability": "view",
      "type": "function"
    },
    {
      "inputs": [
        {
          "internalType": "uint256",
          "name": "_num",
          "type": "uint256"
        }
      ],
      "name": "mint",
      "outputs": [],
      "stateMutability": "payable",
      "type": "function"
    },
    {
      "inputs": [],
      "name": "mintingStarted",
      "outputs": [
        {
          "internalType": "bool",
          "name": "",
          "type": "bool"
        }
      ],
      "stateMutability": "view",
      "type": "function"
    },
    {
      "inputs": [],
      "name": "name",
      "outputs": [
        {
          "internalType": "string",
          "name": "",
          "type": "string"
        }
      ],
      "stateMutability": "view",
      "type": "function"
    },
    {
      "inputs": [],
      "name": "notRevealedURI",
      "outputs": [
        {
          "internalType": "string",
          "name": "",
          "type": "string"
        }
      ],
      "stateMutability": "view",
      "type": "function"
    },
    {
      "inputs": [],
      "name": "owner",
      "outputs": [
        {
          "internalType": "address",
          "name": "",
          "type": "address"
        }
      ],
      "stateMutability": "view",
      "type": "function"
    },
    {
      "inputs": [
        {
          "internalType": "uint256",
          "name": "tokenId",
          "type": "uint256"
        }
      ],
      "name": "ownerOf",
      "outputs": [
        {
          "internalType": "address",
          "name": "",
          "type": "address"
        }
      ],
      "stateMutability": "view",
      "type": "function"
    },
    {
      "inputs": [],
      "name": "price",
      "outputs": [
        {
          "internalType": "uint256",
          "name": "",
          "type": "uint256"
        }
      ],
      "stateMutability": "view",
      "type": "function"
    },
    {
      "inputs": [],
      "name": "renounceOwnership",
      "outputs": [],
      "stateMutability": "nonpayable",
      "type": "function"
    },
    {
      "inputs": [],
      "name": "reveal",
      "outputs": [],
      "stateMutability": "nonpayable",
      "type": "function"
    },
    {
      "inputs": [],
      "name": "revealed",
      "outputs": [
        {
          "internalType": "bool",
          "name": "",
          "type": "bool"
        }
      ],
      "stateMutability": "view",
      "type": "function"
    },
    {
      "inputs": [
        {
          "internalType": "address",
          "name": "from",
          "type": "address"
        },
        {
          "internalType": "address",
          "name": "to",
          "type": "address"
        },
        {
          "internalType": "uint256",
          "name": "tokenId",
          "type": "uint256"
        }
      ],
      "name": "safeTransferFrom",
      "outputs": [],
      "stateMutability": "nonpayable",
      "type": "function"
    },
    {
      "inputs": [
        {
          "internalType": "address",
          "name": "from",
          "type": "address"
        },
        {
          "internalType": "address",
          "name": "to",
          "type": "address"
        },
        {
          "internalType": "uint256",
          "name": "tokenId",
          "type": "uint256"
        },
        {
          "internalType": "bytes",
          "name": "_data",
          "type": "bytes"
        }
      ],
      "name": "safeTransferFrom",
      "outputs": [],
      "stateMutability": "nonpayable",
      "type": "function"
    },
    {
      "inputs": [
        {
          "internalType": "address",
          "name": "operator",
          "type": "address"
        },
        {
          "internalType": "bool",
          "name": "approved",
          "type": "bool"
        }
      ],
      "name": "setApprovalForAll",
      "outputs": [],
      "stateMutability": "nonpayable",
      "type": "function"
    },
    {
      "inputs": [
        {
          "internalType": "string",
          "name": "_baseTokenURI",
          "type": "string"
        }
      ],
      "name": "setBaseURI",
      "outputs": [],
      "stateMutability": "nonpayable",
      "type": "function"
    },
    {
      "inputs": [
        {
          "internalType": "string",
          "name": "_notRevealedURI",
          "type": "string"
        }
      ],
      "name": "setNotRevealedURI",
      "outputs": [],
      "stateMutability": "nonpayable",
      "type": "function"
    },
    {
      "inputs": [
        {
          "internalType": "uint256",
          "name": "_newStartBlock",
          "type": "uint256"
        }
      ],
      "name": "setStartBlock",
      "outputs": [],
      "stateMutability": "nonpayable",
      "type": "function"
    },
    {
      "inputs": [],
      "name": "startBlock",
      "outputs": [
        {
          "internalType": "uint256",
          "name": "",
          "type": "uint256"
        }
      ],
      "stateMutability": "view",
      "type": "function"
    },
    {
      "inputs": [
        {
          "internalType": "bytes4",
          "name": "interfaceId",
          "type": "bytes4"
        }
      ],
      "name": "supportsInterface",
      "outputs": [
        {
          "internalType": "bool",
          "name": "",
          "type": "bool"
        }
      ],
      "stateMutability": "view",
      "type": "function"
    },
    {
      "inputs": [],
      "name": "symbol",
      "outputs": [
        {
          "internalType": "string",
          "name": "",
          "type": "string"
        }
      ],
      "stateMutability": "view",
      "type": "function"
    },
    {
      "inputs": [],
      "name": "tokenCounter",
      "outputs": [
        {
          "internalType": "uint256",
          "name": "",
          "type": "uint256"
        }
      ],
      "stateMutability": "view",
      "type": "function"
    },
    {
      "inputs": [
        {
          "internalType": "uint256",
          "name": "_tokenId",
          "type": "uint256"
        }
      ],
      "name": "tokenURI",
      "outputs": [
        {
          "internalType": "string",
          "name": "",
          "type": "string"
        }
      ],
      "stateMutability": "view",
      "type": "function"
    },
    {
      "inputs": [],
      "name": "totalSupply",
      "outputs": [
        {
          "internalType": "uint256",
          "name": "",
          "type": "uint256"
        }
      ],
      "stateMutability": "view",
      "type": "function"
    },
    {
      "inputs": [
        {
          "internalType": "address",
          "name": "from",
          "type": "address"
        },
        {
          "internalType": "address",
          "name": "to",
          "type": "address"
        },
        {
          "internalType": "uint256",
          "name": "tokenId",
          "type": "uint256"
        }
      ],
      "name": "transferFrom",
      "outputs": [],
      "stateMutability": "nonpayable",
      "type": "function"
    },
    {
      "inputs": [
        {
          "internalType": "address",
          "name": "newOwner",
          "type": "address"
        }
      ],
      "name": "transferOwnership",
      "outputs": [],
      "stateMutability": "nonpayable",
      "type": "function"
    },
    {
      "inputs": [],
      "name": "withdrawAll",
      "outputs": [],
      "stateMutability": "payable",
      "type": "function"
    }
  ],
  "bytecode": "0x608060405266b1a2bc2ec500006008556000600c60006101000a81548160ff0219169083151502179055503480156200003757600080fd5b50604051620049263803806200492683398181016040528101906200005d919062000402565b6040518060400160405280600e81526020017f41706520506978656c2047616e670000000000000000000000000000000000008152506040518060400160405280600381526020017f41504700000000000000000000000000000000000000000000000000000000008152508160009080519060200190620000e1929190620002e0565b508060019080519060200190620000fa929190620002e0565b5050506200011d620001116200013d60201b60201c565b6200014560201b60201c565b600060078190555062000136816200020b60201b60201c565b506200063a565b600033905090565b6000600660009054906101000a900473ffffffffffffffffffffffffffffffffffffffff16905081600660006101000a81548173ffffffffffffffffffffffffffffffffffffffff021916908373ffffffffffffffffffffffffffffffffffffffff1602179055508173ffffffffffffffffffffffffffffffffffffffff168173ffffffffffffffffffffffffffffffffffffffff167f8be0079c531659141344cd1fd0a4f28419497f9722a3daafe3b4186f6b6457e060405160405180910390a35050565b6200021b6200013d60201b60201c565b73ffffffffffffffffffffffffffffffffffffffff1662000241620002b660201b60201c565b73ffffffffffffffffffffffffffffffffffffffff16146200029a576040517f08c379a000000000000000000000000000000000000000000000000000000000815260040162000291906200046e565b60405180910390fd5b80600b9080519060200190620002b2929190620002e0565b5050565b6000600660009054906101000a900473ffffffffffffffffffffffffffffffffffffffff16905090565b828054620002ee9062000536565b90600052602060002090601f0160209004810192826200031257600085556200035e565b82601f106200032d57805160ff19168380011785556200035e565b828001600101855582156200035e579182015b828111156200035d57825182559160200191906001019062000340565b5b5090506200036d919062000371565b5090565b5b808211156200038c57600081600090555060010162000372565b5090565b6000620003a7620003a184620004b9565b62000490565b905082815260208101848484011115620003c057600080fd5b620003cd84828562000500565b509392505050565b600082601f830112620003e757600080fd5b8151620003f984826020860162000390565b91505092915050565b6000602082840312156200041557600080fd5b600082015167ffffffffffffffff8111156200043057600080fd5b6200043e84828501620003d5565b91505092915050565b600062000456602083620004ef565b9150620004638262000611565b602082019050919050565b60006020820190508181036000830152620004898162000447565b9050919050565b60006200049c620004af565b9050620004aa82826200056c565b919050565b6000604051905090565b600067ffffffffffffffff821115620004d757620004d6620005d1565b5b620004e28262000600565b9050602081019050919050565b600082825260208201905092915050565b60005b838110156200052057808201518184015260208101905062000503565b8381111562000530576000848401525b50505050565b600060028204905060018216806200054f57607f821691505b60208210811415620005665762000565620005a2565b5b50919050565b620005778262000600565b810181811067ffffffffffffffff82111715620005995762000598620005d1565b5b80604052505050565b7f4e487b7100000000000000000000000000000000000000000000000000000000600052602260045260246000fd5b7f4e487b7100000000000000000000000000000000000000000000000000000000600052604160045260246000fd5b6000601f19601f8301169050919050565b7f4f776e61626c653a2063616c6c6572206973206e6f7420746865206f776e6572600082015250565b6142dc806200064a6000396000f3fe6080604052600436106101f95760003560e01c8063722503801161010d578063a475b5dd116100a0578063e985e9c51161006f578063e985e9c5146106d3578063f2c4ce1e14610710578063f2fde38b14610739578063f35e4a6e14610762578063fa8554f01461078b576101f9565b8063a475b5dd1461062b578063b88d4fde14610642578063c87b56dd1461066b578063d082e381146106a8576101f9565b806395d89b41116100dc57806395d89b4114610590578063a035b1fe146105bb578063a0712d68146105e6578063a22cb46514610602576101f9565b80637225038014610505578063806ba6d614610530578063853828b61461055b5780638da5cb5b14610565576101f9565b806342842e0e1161019057806355f804b31161015f57806355f804b3146104205780636352211e146104495780636f8608e41461048657806370a08231146104b1578063715018a6146104ee576101f9565b806342842e0e1461037657806348cd4cb11461039f57806351830227146103ca578063536466af146103f5576101f9565b8063116b556b116101cc578063116b556b146102cc57806318160ddd146102f75780631c96cae91461032257806323b872dd1461034d576101f9565b806301ffc9a7146101fe57806306fdde031461023b578063081812fc14610266578063095ea7b3146102a3575b600080fd5b34801561020a57600080fd5b5061022560048036038101906102209190612e73565b6107b4565b6040516102329190613467565b60405180910390f35b34801561024757600080fd5b50610250610896565b60405161025d9190613482565b60405180910390f35b34801561027257600080fd5b5061028d60048036038101906102889190612f06565b610928565b60405161029a91906133d7565b60405180910390f35b3480156102af57600080fd5b506102ca60048036038101906102c59190612e0e565b6109ad565b005b3480156102d857600080fd5b506102e1610ac5565b6040516102ee91906133d7565b60405180910390f35b34801561030357600080fd5b5061030c610add565b6040516103199190613784565b60405180910390f35b34801561032e57600080fd5b50610337610ae7565b6040516103449190613784565b60405180910390f35b34801561035957600080fd5b50610374600480360381019061036f9190612d08565b610aed565b005b34801561038257600080fd5b5061039d60048036038101906103989190612d08565b610b4d565b005b3480156103ab57600080fd5b506103b4610b6d565b6040516103c19190613784565b60405180910390f35b3480156103d657600080fd5b506103df610b73565b6040516103ec9190613467565b60405180910390f35b34801561040157600080fd5b5061040a610b86565b60405161041791906133d7565b60405180910390f35b34801561042c57600080fd5b5061044760048036038101906104429190612ec5565b610b9e565b005b34801561045557600080fd5b50610470600480360381019061046b9190612f06565b610c85565b60405161047d91906133d7565b60405180910390f35b34801561049257600080fd5b5061049b610d37565b6040516104a89190613467565b60405180910390f35b3480156104bd57600080fd5b506104d860048036038101906104d39190612ca3565b610d44565b6040516104e59190613784565b60405180910390f35b3480156104fa57600080fd5b50610503610dfc565b005b34801561051157600080fd5b5061051a610e84565b6040516105279190613482565b60405180910390f35b34801561053c57600080fd5b50610545610f12565b60405161055291906133d7565b60405180910390f35b610563610f2a565b005b34801561057157600080fd5b5061057a611039565b60405161058791906133d7565b60405180910390f35b34801561059c57600080fd5b506105a5611063565b6040516105b29190613482565b60405180910390f35b3480156105c757600080fd5b506105d06110f5565b6040516105dd9190613784565b60405180910390f35b61060060048036038101906105fb9190612f06565b6110fb565b005b34801561060e57600080fd5b5061062960048036038101906106249190612dd2565b6112ec565b005b34801561063757600080fd5b50610640611302565b005b34801561064e57600080fd5b5061066960048036038101906106649190612d57565b61139b565b005b34801561067757600080fd5b50610692600480360381019061068d9190612f06565b6113fd565b60405161069f9190613482565b60405180910390f35b3480156106b457600080fd5b506106bd611550565b6040516106ca9190613784565b60405180910390f35b3480156106df57600080fd5b506106fa60048036038101906106f59190612ccc565b611556565b6040516107079190613467565b60405180910390f35b34801561071c57600080fd5b5061073760048036038101906107329190612ec5565b6115ea565b005b34801561074557600080fd5b50610760600480360381019061075b9190612ca3565b611680565b005b34801561076e57600080fd5b5061078960048036038101906107849190612f06565b611778565b005b34801561079757600080fd5b506107b260048036038101906107ad9190612ca3565b6117fe565b005b60007f80ac58cd000000000000000000000000000000000000000000000000000000007bffffffffffffffffffffffffffffffffffffffffffffffffffffffff1916827bffffffffffffffffffffffffffffffffffffffffffffffffffffffff1916148061087f57507f5b5e139f000000000000000000000000000000000000000000000000000000007bffffffffffffffffffffffffffffffffffffffffffffffffffffffff1916827bffffffffffffffffffffffffffffffffffffffffffffffffffffffff1916145b8061088f575061088e82611c2b565b5b9050919050565b6060600080546108a590613a3f565b80601f01602080910402602001604051908101604052809291908181526020018280546108d190613a3f565b801561091e5780601f106108f35761010080835404028352916020019161091e565b820191906000526020600020905b81548152906001019060200180831161090157829003601f168201915b5050505050905090565b600061093382611c95565b610972576040517f08c379a0000000000000000000000000000000000000000000000000000000008152600401610969906136a4565b60405180910390fd5b6004600083815260200190815260200160002060009054906101000a900473ffffffffffffffffffffffffffffffffffffffff169050919050565b60006109b882610c85565b90508073ffffffffffffffffffffffffffffffffffffffff168373ffffffffffffffffffffffffffffffffffffffff161415610a29576040517f08c379a0000000000000000000000000000000000000000000000000000000008152600401610a2090613704565b60405180910390fd5b8073ffffffffffffffffffffffffffffffffffffffff16610a48611d01565b73ffffffffffffffffffffffffffffffffffffffff161480610a775750610a7681610a71611d01565b611556565b5b610ab6576040517f08c379a0000000000000000000000000000000000000000000000000000000008152600401610aad906135e4565b60405180910390fd5b610ac08383611d09565b505050565b732e2435dbadf4e825ef7c83d871c0ab272eecd43881565b6000600754905090565b61271081565b610afe610af8611d01565b82611dc2565b610b3d576040517f08c379a0000000000000000000000000000000000000000000000000000000008152600401610b3490613764565b60405180910390fd5b610b48838383611ea0565b505050565b610b688383836040518060200160405280600081525061139b565b505050565b60095481565b600c60009054906101000a900460ff1681565b734c8734d7978373de413ad6d36bfcafb7f76f6bb181565b610ba6611d01565b73ffffffffffffffffffffffffffffffffffffffff16610bc4611039565b73ffffffffffffffffffffffffffffffffffffffff1614610c1a576040517f08c379a0000000000000000000000000000000000000000000000000000000008152600401610c11906136c4565b60405180910390fd5b6000600a8054610c2990613a3f565b905014610c6b576040517f08c379a0000000000000000000000000000000000000000000000000000000008152600401610c62906136e4565b60405180910390fd5b80600a9080519060200190610c81929190612a9d565b5050565b6000806002600084815260200190815260200160002060009054906101000a900473ffffffffffffffffffffffffffffffffffffffff169050600073ffffffffffffffffffffffffffffffffffffffff168173ffffffffffffffffffffffffffffffffffffffff161415610d2e576040517f08c379a0000000000000000000000000000000000000000000000000000000008152600401610d2590613624565b60405180910390fd5b80915050919050565b6000600954431015905090565b60008073ffffffffffffffffffffffffffffffffffffffff168273ffffffffffffffffffffffffffffffffffffffff161415610db5576040517f08c379a0000000000000000000000000000000000000000000000000000000008152600401610dac90613604565b60405180910390fd5b600360008373ffffffffffffffffffffffffffffffffffffffff1673ffffffffffffffffffffffffffffffffffffffff168152602001908152602001600020549050919050565b610e04611d01565b73ffffffffffffffffffffffffffffffffffffffff16610e22611039565b73ffffffffffffffffffffffffffffffffffffffff1614610e78576040517f08c379a0000000000000000000000000000000000000000000000000000000008152600401610e6f906136c4565b60405180910390fd5b610e826000612107565b565b600b8054610e9190613a3f565b80601f0160208091040260200160405190810160405280929190818152602001828054610ebd90613a3f565b8015610f0a5780601f10610edf57610100808354040283529160200191610f0a565b820191906000526020600020905b815481529060010190602001808311610eed57829003601f168201915b505050505081565b73f1088c8a435e46f8e75eacd62df584d96b31086681565b610f32611d01565b73ffffffffffffffffffffffffffffffffffffffff16610f50611039565b73ffffffffffffffffffffffffffffffffffffffff1614610fa6576040517f08c379a0000000000000000000000000000000000000000000000000000000008152600401610f9d906136c4565b60405180910390fd5b600047905060008111610fb857600080fd5b610fee734c8734d7978373de413ad6d36bfcafb7f76f6bb16064601484610fdf91906138fb565b610fe991906138ca565b6121cd565b611018732e2435dbadf4e825ef7c83d871c0ab272eecd43860024761101391906138ca565b6121cd565b61103673f1088c8a435e46f8e75eacd62df584d96b310866476121cd565b50565b6000600660009054906101000a900473ffffffffffffffffffffffffffffffffffffffff16905090565b60606001805461107290613a3f565b80601f016020809104026020016040519081016040528092919081815260200182805461109e90613a3f565b80156110eb5780601f106110c0576101008083540402835291602001916110eb565b820191906000526020600020905b8154815290600101906020018083116110ce57829003601f168201915b5050505050905090565b60085481565b611103610d37565b611142576040517f08c379a000000000000000000000000000000000000000000000000000000000815260040161113990613724565b60405180910390fd5b61271060075410611188576040517f08c379a000000000000000000000000000000000000000000000000000000000815260040161117f90613564565b60405180910390fd5b600081118015611199575060028111155b6111d8576040517f08c379a00000000000000000000000000000000000000000000000000000000081526004016111cf90613664565b60405180910390fd5b612710816007546111e99190613874565b111561122a576040517f08c379a0000000000000000000000000000000000000000000000000000000008152600401611221906134a4565b60405180910390fd5b8060085461123891906138fb565b34101561127a576040517f08c379a000000000000000000000000000000000000000000000000000000000815260040161127190613684565b60405180910390fd5b60005b818110156112e85760016007546112949190613874565b6007819055506112a63360075461227e565b6007547f304324a76b92b0b5e4691afa95a28394678d9dfdc2813fc997dc446da526bf1c60405160405180910390a280806112e090613aa2565b91505061127d565b5050565b6112fe6112f7611d01565b838361229c565b5050565b61130a611d01565b73ffffffffffffffffffffffffffffffffffffffff16611328611039565b73ffffffffffffffffffffffffffffffffffffffff161461137e576040517f08c379a0000000000000000000000000000000000000000000000000000000008152600401611375906136c4565b60405180910390fd5b6001600c60006101000a81548160ff021916908315150217905550565b6113ac6113a6611d01565b83611dc2565b6113eb576040517f08c379a00000000000000000000000000000000000000000000000000000000081526004016113e290613764565b60405180910390fd5b6113f784848484612409565b50505050565b6060600754821115611444576040517f08c379a000000000000000000000000000000000000000000000000000000000815260040161143b906134e4565b60405180910390fd5b60001515600c60009054906101000a900460ff16151514156114f257600b805461146d90613a3f565b80601f016020809104026020016040519081016040528092919081815260200182805461149990613a3f565b80156114e65780601f106114bb576101008083540402835291602001916114e6565b820191906000526020600020905b8154815290600101906020018083116114c957829003601f168201915b5050505050905061154b565b60006114fc612465565b9050600081511161151c5760405180602001604052806000815250611547565b80611526846124f7565b604051602001611537929190613393565b6040516020818303038152906040525b9150505b919050565b60075481565b6000600560008473ffffffffffffffffffffffffffffffffffffffff1673ffffffffffffffffffffffffffffffffffffffff16815260200190815260200160002060008373ffffffffffffffffffffffffffffffffffffffff1673ffffffffffffffffffffffffffffffffffffffff16815260200190815260200160002060009054906101000a900460ff16905092915050565b6115f2611d01565b73ffffffffffffffffffffffffffffffffffffffff16611610611039565b73ffffffffffffffffffffffffffffffffffffffff1614611666576040517f08c379a000000000000000000000000000000000000000000000000000000000815260040161165d906136c4565b60405180910390fd5b80600b908051906020019061167c929190612a9d565b5050565b611688611d01565b73ffffffffffffffffffffffffffffffffffffffff166116a6611039565b73ffffffffffffffffffffffffffffffffffffffff16146116fc576040517f08c379a00000000000000000000000000000000000000000000000000000000081526004016116f3906136c4565b60405180910390fd5b600073ffffffffffffffffffffffffffffffffffffffff168173ffffffffffffffffffffffffffffffffffffffff16141561176c576040517f08c379a000000000000000000000000000000000000000000000000000000000815260040161176390613504565b60405180910390fd5b61177581612107565b50565b611780611d01565b73ffffffffffffffffffffffffffffffffffffffff1661179e611039565b73ffffffffffffffffffffffffffffffffffffffff16146117f4576040517f08c379a00000000000000000000000000000000000000000000000000000000081526004016117eb906136c4565b60405180910390fd5b8060098190555050565b611806611d01565b73ffffffffffffffffffffffffffffffffffffffff16611824611039565b73ffffffffffffffffffffffffffffffffffffffff161461187a576040517f08c379a0000000000000000000000000000000000000000000000000000000008152600401611871906136c4565b60405180910390fd5b60008173ffffffffffffffffffffffffffffffffffffffff166370a08231306040518263ffffffff1660e01b81526004016118b591906133d7565b60206040518083038186803b1580156118cd57600080fd5b505afa1580156118e1573d6000803e3d6000fd5b505050506040513d601f19601f820116820180604052508101906119059190612f2f565b90508173ffffffffffffffffffffffffffffffffffffffff1663a9059cbb734c8734d7978373de413ad6d36bfcafb7f76f6bb1606460148561194791906138fb565b61195191906138ca565b6040518363ffffffff1660e01b815260040161196e92919061343e565b602060405180830381600087803b15801561198857600080fd5b505af115801561199c573d6000803e3d6000fd5b505050506040513d601f19601f820116820180604052508101906119c09190612e4a565b508173ffffffffffffffffffffffffffffffffffffffff166370a08231306040518263ffffffff1660e01b81526004016119fa91906133d7565b60206040518083038186803b158015611a1257600080fd5b505afa158015611a26573d6000803e3d6000fd5b505050506040513d601f19601f82011682018060405250810190611a4a9190612f2f565b90508173ffffffffffffffffffffffffffffffffffffffff1663a9059cbb732e2435dbadf4e825ef7c83d871c0ab272eecd438600284611a8a91906138ca565b6040518363ffffffff1660e01b8152600401611aa792919061343e565b602060405180830381600087803b158015611ac157600080fd5b505af1158015611ad5573d6000803e3d6000fd5b505050506040513d601f19601f82011682018060405250810190611af99190612e4a565b508173ffffffffffffffffffffffffffffffffffffffff166370a08231306040518263ffffffff1660e01b8152600401611b3391906133d7565b60206040518083038186803b158015611b4b57600080fd5b505afa158015611b5f573d6000803e3d6000fd5b505050506040513d601f19601f82011682018060405250810190611b839190612f2f565b90508173ffffffffffffffffffffffffffffffffffffffff1663a9059cbb73f1088c8a435e46f8e75eacd62df584d96b310866836040518363ffffffff1660e01b8152600401611bd492919061343e565b602060405180830381600087803b158015611bee57600080fd5b505af1158015611c02573d6000803e3d6000fd5b505050506040513d601f19601f82011682018060405250810190611c269190612e4a565b505050565b60007f01ffc9a7000000000000000000000000000000000000000000000000000000007bffffffffffffffffffffffffffffffffffffffffffffffffffffffff1916827bffffffffffffffffffffffffffffffffffffffffffffffffffffffff1916149050919050565b60008073ffffffffffffffffffffffffffffffffffffffff166002600084815260200190815260200160002060009054906101000a900473ffffffffffffffffffffffffffffffffffffffff1673ffffffffffffffffffffffffffffffffffffffff1614159050919050565b600033905090565b816004600083815260200190815260200160002060006101000a81548173ffffffffffffffffffffffffffffffffffffffff021916908373ffffffffffffffffffffffffffffffffffffffff160217905550808273ffffffffffffffffffffffffffffffffffffffff16611d7c83610c85565b73ffffffffffffffffffffffffffffffffffffffff167f8c5be1e5ebec7d5bd14f71427d1e84f3dd0314c0f7b2291e5b200ac8c7c3b92560405160405180910390a45050565b6000611dcd82611c95565b611e0c576040517f08c379a0000000000000000000000000000000000000000000000000000000008152600401611e03906135c4565b60405180910390fd5b6000611e1783610c85565b90508073ffffffffffffffffffffffffffffffffffffffff168473ffffffffffffffffffffffffffffffffffffffff161480611e8657508373ffffffffffffffffffffffffffffffffffffffff16611e6e84610928565b73ffffffffffffffffffffffffffffffffffffffff16145b80611e975750611e968185611556565b5b91505092915050565b8273ffffffffffffffffffffffffffffffffffffffff16611ec082610c85565b73ffffffffffffffffffffffffffffffffffffffff1614611f16576040517f08c379a0000000000000000000000000000000000000000000000000000000008152600401611f0d90613524565b60405180910390fd5b600073ffffffffffffffffffffffffffffffffffffffff168273ffffffffffffffffffffffffffffffffffffffff161415611f86576040517f08c379a0000000000000000000000000000000000000000000000000000000008152600401611f7d90613584565b60405180910390fd5b611f918383836126a4565b611f9c600082611d09565b6001600360008573ffffffffffffffffffffffffffffffffffffffff1673ffffffffffffffffffffffffffffffffffffffff1681526020019081526020016000206000828254611fec9190613955565b925050819055506001600360008473ffffffffffffffffffffffffffffffffffffffff1673ffffffffffffffffffffffffffffffffffffffff16815260200190815260200160002060008282546120439190613874565b92505081905550816002600083815260200190815260200160002060006101000a81548173ffffffffffffffffffffffffffffffffffffffff021916908373ffffffffffffffffffffffffffffffffffffffff160217905550808273ffffffffffffffffffffffffffffffffffffffff168473ffffffffffffffffffffffffffffffffffffffff167fddf252ad1be2c89b69c2b068fc378daa952ba7f163c4a11628f55a4df523b3ef60405160405180910390a46121028383836126a9565b505050565b6000600660009054906101000a900473ffffffffffffffffffffffffffffffffffffffff16905081600660006101000a81548173ffffffffffffffffffffffffffffffffffffffff021916908373ffffffffffffffffffffffffffffffffffffffff1602179055508173ffffffffffffffffffffffffffffffffffffffff168173ffffffffffffffffffffffffffffffffffffffff167f8be0079c531659141344cd1fd0a4f28419497f9722a3daafe3b4186f6b6457e060405160405180910390a35050565b60008273ffffffffffffffffffffffffffffffffffffffff16826040516121f3906133c2565b60006040518083038185875af1925050503d8060008114612230576040519150601f19603f3d011682016040523d82523d6000602084013e612235565b606091505b5050905080612279576040517f08c379a000000000000000000000000000000000000000000000000000000000815260040161227090613744565b60405180910390fd5b505050565b6122988282604051806020016040528060008152506126ae565b5050565b8173ffffffffffffffffffffffffffffffffffffffff168373ffffffffffffffffffffffffffffffffffffffff16141561230b576040517f08c379a0000000000000000000000000000000000000000000000000000000008152600401612302906135a4565b60405180910390fd5b80600560008573ffffffffffffffffffffffffffffffffffffffff1673ffffffffffffffffffffffffffffffffffffffff16815260200190815260200160002060008473ffffffffffffffffffffffffffffffffffffffff1673ffffffffffffffffffffffffffffffffffffffff16815260200190815260200160002060006101000a81548160ff0219169083151502179055508173ffffffffffffffffffffffffffffffffffffffff168373ffffffffffffffffffffffffffffffffffffffff167f17307eab39ab6107e8899845ad3d59bd9653f200f220920489ca2b5937696c31836040516123fc9190613467565b60405180910390a3505050565b612414848484611ea0565b61242084848484612709565b61245f576040517f08c379a0000000000000000000000000000000000000000000000000000000008152600401612456906134c4565b60405180910390fd5b50505050565b6060600a805461247490613a3f565b80601f01602080910402602001604051908101604052809291908181526020018280546124a090613a3f565b80156124ed5780601f106124c2576101008083540402835291602001916124ed565b820191906000526020600020905b8154815290600101906020018083116124d057829003601f168201915b5050505050905090565b6060600082141561253f576040518060400160405280600181526020017f3000000000000000000000000000000000000000000000000000000000000000815250905061269f565b600082905060005b6000821461257157808061255a90613aa2565b915050600a8261256a91906138ca565b9150612547565b60008167ffffffffffffffff8111156125b3577f4e487b7100000000000000000000000000000000000000000000000000000000600052604160045260246000fd5b6040519080825280601f01601f1916602001820160405280156125e55781602001600182028036833780820191505090505b5090505b60008514612698576001826125fe9190613955565b9150600a8561260d9190613aeb565b60306126199190613874565b60f81b818381518110612655577f4e487b7100000000000000000000000000000000000000000000000000000000600052603260045260246000fd5b60200101907effffffffffffffffffffffffffffffffffffffffffffffffffffffffffffff1916908160001a905350600a8561269191906138ca565b94506125e9565b8093505050505b919050565b505050565b505050565b6126b883836128a0565b6126c56000848484612709565b612704576040517f08c379a00000000000000000000000000000000000000000000000000000000081526004016126fb906134c4565b60405180910390fd5b505050565b600061272a8473ffffffffffffffffffffffffffffffffffffffff16612a7a565b15612893578373ffffffffffffffffffffffffffffffffffffffff1663150b7a02612753611d01565b8786866040518563ffffffff1660e01b815260040161277594939291906133f2565b602060405180830381600087803b15801561278f57600080fd5b505af19250505080156127c057506040513d601f19601f820116820180604052508101906127bd9190612e9c565b60015b612843573d80600081146127f0576040519150601f19603f3d011682016040523d82523d6000602084013e6127f5565b606091505b5060008151141561283b576040517f08c379a0000000000000000000000000000000000000000000000000000000008152600401612832906134c4565b60405180910390fd5b805181602001fd5b63150b7a0260e01b7bffffffffffffffffffffffffffffffffffffffffffffffffffffffff1916817bffffffffffffffffffffffffffffffffffffffffffffffffffffffff191614915050612898565b600190505b949350505050565b600073ffffffffffffffffffffffffffffffffffffffff168273ffffffffffffffffffffffffffffffffffffffff161415612910576040517f08c379a000000000000000000000000000000000000000000000000000000000815260040161290790613644565b60405180910390fd5b61291981611c95565b15612959576040517f08c379a000000000000000000000000000000000000000000000000000000000815260040161295090613544565b60405180910390fd5b612965600083836126a4565b6001600360008473ffffffffffffffffffffffffffffffffffffffff1673ffffffffffffffffffffffffffffffffffffffff16815260200190815260200160002060008282546129b59190613874565b92505081905550816002600083815260200190815260200160002060006101000a81548173ffffffffffffffffffffffffffffffffffffffff021916908373ffffffffffffffffffffffffffffffffffffffff160217905550808273ffffffffffffffffffffffffffffffffffffffff16600073ffffffffffffffffffffffffffffffffffffffff167fddf252ad1be2c89b69c2b068fc378daa952ba7f163c4a11628f55a4df523b3ef60405160405180910390a4612a76600083836126a9565b5050565b6000808273ffffffffffffffffffffffffffffffffffffffff163b119050919050565b828054612aa990613a3f565b90600052602060002090601f016020900481019282612acb5760008555612b12565b82601f10612ae457805160ff1916838001178555612b12565b82800160010185558215612b12579182015b82811115612b11578251825591602001919060010190612af6565b5b509050612b1f9190612b23565b5090565b5b80821115612b3c576000816000905550600101612b24565b5090565b6000612b53612b4e846137c4565b61379f565b905082815260208101848484011115612b6b57600080fd5b612b768482856139fd565b509392505050565b6000612b91612b8c846137f5565b61379f565b905082815260208101848484011115612ba957600080fd5b612bb48482856139fd565b509392505050565b600081359050612bcb8161424a565b92915050565b600081359050612be081614261565b92915050565b600081519050612bf581614261565b92915050565b600081359050612c0a81614278565b92915050565b600081519050612c1f81614278565b92915050565b600082601f830112612c3657600080fd5b8135612c46848260208601612b40565b91505092915050565b600082601f830112612c6057600080fd5b8135612c70848260208601612b7e565b91505092915050565b600081359050612c888161428f565b92915050565b600081519050612c9d8161428f565b92915050565b600060208284031215612cb557600080fd5b6000612cc384828501612bbc565b91505092915050565b60008060408385031215612cdf57600080fd5b6000612ced85828601612bbc565b9250506020612cfe85828601612bbc565b9150509250929050565b600080600060608486031215612d1d57600080fd5b6000612d2b86828701612bbc565b9350506020612d3c86828701612bbc565b9250506040612d4d86828701612c79565b9150509250925092565b60008060008060808587031215612d6d57600080fd5b6000612d7b87828801612bbc565b9450506020612d8c87828801612bbc565b9350506040612d9d87828801612c79565b925050606085013567ffffffffffffffff811115612dba57600080fd5b612dc687828801612c25565b91505092959194509250565b60008060408385031215612de557600080fd5b6000612df385828601612bbc565b9250506020612e0485828601612bd1565b9150509250929050565b60008060408385031215612e2157600080fd5b6000612e2f85828601612bbc565b9250506020612e4085828601612c79565b9150509250929050565b600060208284031215612e5c57600080fd5b6000612e6a84828501612be6565b91505092915050565b600060208284031215612e8557600080fd5b6000612e9384828501612bfb565b91505092915050565b600060208284031215612eae57600080fd5b6000612ebc84828501612c10565b91505092915050565b600060208284031215612ed757600080fd5b600082013567ffffffffffffffff811115612ef157600080fd5b612efd84828501612c4f565b91505092915050565b600060208284031215612f1857600080fd5b6000612f2684828501612c79565b91505092915050565b600060208284031215612f4157600080fd5b6000612f4f84828501612c8e565b91505092915050565b612f6181613989565b82525050565b612f708161399b565b82525050565b6000612f8182613826565b612f8b818561383c565b9350612f9b818560208601613a0c565b612fa481613bd8565b840191505092915050565b6000612fba82613831565b612fc48185613858565b9350612fd4818560208601613a0c565b612fdd81613bd8565b840191505092915050565b6000612ff382613831565b612ffd8185613869565b935061300d818560208601613a0c565b80840191505092915050565b6000613026603583613858565b915061303182613be9565b604082019050919050565b6000613049603283613858565b915061305482613c38565b604082019050919050565b600061306c601083613858565b915061307782613c87565b602082019050919050565b600061308f602683613858565b915061309a82613cb0565b604082019050919050565b60006130b2602583613858565b91506130bd82613cff565b604082019050919050565b60006130d5601c83613858565b91506130e082613d4e565b602082019050919050565b60006130f8602283613858565b915061310382613d77565b604082019050919050565b600061311b602483613858565b915061312682613dc6565b604082019050919050565b600061313e601983613858565b915061314982613e15565b602082019050919050565b6000613161602c83613858565b915061316c82613e3e565b604082019050919050565b6000613184603883613858565b915061318f82613e8d565b604082019050919050565b60006131a7602a83613858565b91506131b282613edc565b604082019050919050565b60006131ca602983613858565b91506131d582613f2b565b604082019050919050565b60006131ed602083613858565b91506131f882613f7a565b602082019050919050565b6000613210604783613858565b915061321b82613fa3565b606082019050919050565b6000613233602283613858565b915061323e82614018565b604082019050919050565b6000613256602c83613858565b915061326182614067565b604082019050919050565b6000613279600583613869565b9150613284826140b6565b600582019050919050565b600061329c602083613858565b91506132a7826140df565b602082019050919050565b60006132bf601d83613858565b91506132ca82614108565b602082019050919050565b60006132e2602183613858565b91506132ed82614131565b604082019050919050565b6000613305602c83613858565b915061331082614180565b604082019050919050565b600061332860008361384d565b9150613333826141cf565b600082019050919050565b600061334b601083613858565b9150613356826141d2565b602082019050919050565b600061336e603183613858565b9150613379826141fb565b604082019050919050565b61338d816139f3565b82525050565b600061339f8285612fe8565b91506133ab8284612fe8565b91506133b68261326c565b91508190509392505050565b60006133cd8261331b565b9150819050919050565b60006020820190506133ec6000830184612f58565b92915050565b60006080820190506134076000830187612f58565b6134146020830186612f58565b6134216040830185613384565b81810360608301526134338184612f76565b905095945050505050565b60006040820190506134536000830185612f58565b6134606020830184613384565b9392505050565b600060208201905061347c6000830184612f67565b92915050565b6000602082019050818103600083015261349c8184612faf565b905092915050565b600060208201905081810360008301526134bd81613019565b9050919050565b600060208201905081810360008301526134dd8161303c565b9050919050565b600060208201905081810360008301526134fd8161305f565b9050919050565b6000602082019050818103600083015261351d81613082565b9050919050565b6000602082019050818103600083015261353d816130a5565b9050919050565b6000602082019050818103600083015261355d816130c8565b9050919050565b6000602082019050818103600083015261357d816130eb565b9050919050565b6000602082019050818103600083015261359d8161310e565b9050919050565b600060208201905081810360008301526135bd81613131565b9050919050565b600060208201905081810360008301526135dd81613154565b9050919050565b600060208201905081810360008301526135fd81613177565b9050919050565b6000602082019050818103600083015261361d8161319a565b9050919050565b6000602082019050818103600083015261363d816131bd565b9050919050565b6000602082019050818103600083015261365d816131e0565b9050919050565b6000602082019050818103600083015261367d81613203565b9050919050565b6000602082019050818103600083015261369d81613226565b9050919050565b600060208201905081810360008301526136bd81613249565b9050919050565b600060208201905081810360008301526136dd8161328f565b9050919050565b600060208201905081810360008301526136fd816132b2565b9050919050565b6000602082019050818103600083015261371d816132d5565b9050919050565b6000602082019050818103600083015261373d816132f8565b9050919050565b6000602082019050818103600083015261375d8161333e565b9050919050565b6000602082019050818103600083015261377d81613361565b9050919050565b60006020820190506137996000830184613384565b92915050565b60006137a96137ba565b90506137b58282613a71565b919050565b6000604051905090565b600067ffffffffffffffff8211156137df576137de613ba9565b5b6137e882613bd8565b9050602081019050919050565b600067ffffffffffffffff8211156138105761380f613ba9565b5b61381982613bd8565b9050602081019050919050565b600081519050919050565b600081519050919050565b600082825260208201905092915050565b600081905092915050565b600082825260208201905092915050565b600081905092915050565b600061387f826139f3565b915061388a836139f3565b9250827fffffffffffffffffffffffffffffffffffffffffffffffffffffffffffffffff038211156138bf576138be613b1c565b5b828201905092915050565b60006138d5826139f3565b91506138e0836139f3565b9250826138f0576138ef613b4b565b5b828204905092915050565b6000613906826139f3565b9150613911836139f3565b9250817fffffffffffffffffffffffffffffffffffffffffffffffffffffffffffffffff048311821515161561394a57613949613b1c565b5b828202905092915050565b6000613960826139f3565b915061396b836139f3565b92508282101561397e5761397d613b1c565b5b828203905092915050565b6000613994826139d3565b9050919050565b60008115159050919050565b60007fffffffff0000000000000000000000000000000000000000000000000000000082169050919050565b600073ffffffffffffffffffffffffffffffffffffffff82169050919050565b6000819050919050565b82818337600083830152505050565b60005b83811015613a2a578082015181840152602081019050613a0f565b83811115613a39576000848401525b50505050565b60006002820490506001821680613a5757607f821691505b60208210811415613a6b57613a6a613b7a565b5b50919050565b613a7a82613bd8565b810181811067ffffffffffffffff82111715613a9957613a98613ba9565b5b80604052505050565b6000613aad826139f3565b91507fffffffffffffffffffffffffffffffffffffffffffffffffffffffffffffffff821415613ae057613adf613b1c565b5b600182019050919050565b6000613af6826139f3565b9150613b01836139f3565b925082613b1157613b10613b4b565b5b828206905092915050565b7f4e487b7100000000000000000000000000000000000000000000000000000000600052601160045260246000fd5b7f4e487b7100000000000000000000000000000000000000000000000000000000600052601260045260246000fd5b7f4e487b7100000000000000000000000000000000000000000000000000000000600052602260045260246000fd5b7f4e487b7100000000000000000000000000000000000000000000000000000000600052604160045260246000fd5b6000601f19601f8301169050919050565b7f49276d2061667261696420796f75277665206661696c656420746f206d696e7460008201527f20746f6f206d616e7920636f6c6c65637469626c650000000000000000000000602082015250565b7f4552433732313a207472616e7366657220746f206e6f6e20455243373231526560008201527f63656976657220696d706c656d656e7465720000000000000000000000000000602082015250565b7f546f6b656e204e6f74204d696e74656400000000000000000000000000000000600082015250565b7f4f776e61626c653a206e6577206f776e657220697320746865207a65726f206160008201527f6464726573730000000000000000000000000000000000000000000000000000602082015250565b7f4552433732313a207472616e736665722066726f6d20696e636f72726563742060008201527f6f776e6572000000000000000000000000000000000000000000000000000000602082015250565b7f4552433732313a20746f6b656e20616c7265616479206d696e74656400000000600082015250565b7f416c6c20636f6c6c65637469626c652068617665206265656e206d696e74656460008201527f2021000000000000000000000000000000000000000000000000000000000000602082015250565b7f4552433732313a207472616e7366657220746f20746865207a65726f2061646460008201527f7265737300000000000000000000000000000000000000000000000000000000602082015250565b7f4552433732313a20617070726f766520746f2063616c6c657200000000000000600082015250565b7f4552433732313a206f70657261746f7220717565727920666f72206e6f6e657860008201527f697374656e7420746f6b656e0000000000000000000000000000000000000000602082015250565b7f4552433732313a20617070726f76652063616c6c6572206973206e6f74206f7760008201527f6e6572206e6f7220617070726f76656420666f7220616c6c0000000000000000602082015250565b7f4552433732313a2062616c616e636520717565727920666f7220746865207a6560008201527f726f206164647265737300000000000000000000000000000000000000000000602082015250565b7f4552433732313a206f776e657220717565727920666f72206e6f6e657869737460008201527f656e7420746f6b656e0000000000000000000000000000000000000000000000602082015250565b7f4552433732313a206d696e7420746f20746865207a65726f2061646472657373600082015250565b7f596f752063616e206d696e74206e6f206665776572207468616e20312c20616e60008201527f64206e6f206d6f7265207468616e20313020636f6c6c65637469626c6520617460208201527f20612074696d6500000000000000000000000000000000000000000000000000604082015250565b7f45746865722076616c75652073656e74206973206e6f7420737566666963696560008201527f6e74000000000000000000000000000000000000000000000000000000000000602082015250565b7f4552433732313a20617070726f76656420717565727920666f72206e6f6e657860008201527f697374656e7420746f6b656e0000000000000000000000000000000000000000602082015250565b7f2e6a736f6e000000000000000000000000000000000000000000000000000000600082015250565b7f4f776e61626c653a2063616c6c6572206973206e6f7420746865206f776e6572600082015250565b7f43616e6e6f742072652d75706461746520746865206261736520555249000000600082015250565b7f4552433732313a20617070726f76616c20746f2063757272656e74206f776e6560008201527f7200000000000000000000000000000000000000000000000000000000000000602082015250565b7f4974206973206e6f742074696d6520746f206d696e742074686520636f6c6c6560008201527f637469626c652079657420210000000000000000000000000000000000000000602082015250565b50565b7f5472616e73666572206661696c65642e00000000000000000000000000000000600082015250565b7f4552433732313a207472616e736665722063616c6c6572206973206e6f74206f60008201527f776e6572206e6f7220617070726f766564000000000000000000000000000000602082015250565b61425381613989565b811461425e57600080fd5b50565b61426a8161399b565b811461427557600080fd5b50565b614281816139a7565b811461428c57600080fd5b50565b614298816139f3565b81146142a357600080fd5b5056fea264697066735822122015a9586f6468a3b6ab0f9bb43448613e1e4c60c034fc881e7239e61cc2129bb164736f6c63430008040033",
  "linkReferences": {},
  "deployedLinkReferences": {}
}